:020000040800F2
:10000000E8220020D93D00088D0E00088F0E000860
:10001000930E0008970E00089B0E000800000000D9
:100020000000000000000000000000009F0E00081B
:10003000A10E000800000000A30E0008A50E000895
:10004000F33D0008F33D0008F33D0008F33D0008D0
:10005000F33D0008F33D0008F33D0008F33D0008C0
:10006000F33D0008F33D0008F33D0008F33D0008B0
:10007000F33D0008F33D0008F33D0008F33D0008A0
:10008000F33D0008F33D0008F33D0008F33D000890
:10009000F33D0008F33D0008F33D0008ED3900088A
:1000A000F33D0008F33D0008F33D0008F33D000870
:1000B000993A00086B3B0008F33D0008F33D000847
:1000C000F33D0008F33D0008F33D0008F33D000850
:1000D000F33D00084F3D0008F33D0008F33D0008E4
:1000E0000D3A0008F33D0008F33D0008F33D000819
:1000F000F33D0008F33D0008F33D0008F33D000820
:10010000F33D0008F33D0008F33D0008F33D00080F
:10011000F33D0008F33D0008F33D0008F33D0008FF
:10012000F33D0008F33D0008F33D0008F33D0008EF
:1001300000F002F800F062F80AA090E8000C824497
:100140008344AAF10107DA4501D100F057F8AFF274
:10015000090EBAE80F0013F0010F18BFFB1A43F0A5
:1001600001031847C4780000E47800000A444FF007
:10017000000C10F8013B13F0070408BF10F8014B06
:100180001D1108BF10F8015B641E05D010F8016B4B
:10019000641E01F8016BF9D113F0080F1EBF10F8AF
:1001A000014BAD1C0C1B09D16D1E58BF01F801CBD2
:1001B000FAD505E014F8016B01F8016B6D1EF9D555
:1001C0009142D6D37047000000230024002500266A
:1001D000103A28BF78C1FBD8520728BF30C148BFAA
:1001E0000B607047782905F08985732905F03487FD
:1001F000002070471FB51FBD10B510BD05F05EFF94
:100200001146FFF7F7FF00F009F805F07CFF03B493
:10021000FFF7F2FF03BC03F03FFD000088B04FF092
:100220000009CB460020079001200690059004901D
:100230000390C825C826C827A84640F25740029018
:1002400003F0C0FC03F046F94FF4A06003F0E4FDB6
:1002500002F045FC03F020FB03F07EFB02F044FDBE
:1002600003F0D4F94721092003F052FC40F2671152
:1002700040F2CF7003F0E2FB4FF4E13003F01BFDDE
:100280000020FB490860FB490860F9E3FA48006870
:10029000012804D100F0F8FE0020F749086010237F
:1002A000F6A20A21084602F09DFF1023F6A21A21A9
:1002B0000A2002F097FF1023F6A22B210A2002F059
:1002C00091FF02F0FEFD01F073FAEA480068012890
:1002D000DBD102F019FE0020E64908604FF0010969
:1002E0008346079040E11023ECA20A21084602F061
:1002F00079FF1023EDA21A210A2002F073FF1023C8
:10030000EEA22B210A2002F06DFF02F0DAFDD9489F
:100310000068012812D1D6490860642003F08FFCE0
:100320000020E949C1F8940102F0EEFD0020D14916
:10033000086081464FF0010B079019E1CD48006835
:100340000228CFD102F0E0FD0120C94908606420F5
:1003500003F075FC0020DC49C1F89401C549086030
:10036000FEE01023D9A20A21084602F03BFF02F06A
:10037000A8FD15E000BF03F06CF90446002C0CDB6F
:10038000092C0ADC2546102001232A46282100904A
:10039000142002F053FF02F094FDC82D00D000E0BD
:1003A000E8E700BF17E0642003F049FC03F051F9CF
:1003B0000446002C0CDB092C0ADC26461020012305
:1003C0003246282100901E2002F038FF02F079FD0D
:1003D000C82E00D000E0E6E700BF17E0642003F07D
:1003E0002EFC03F036F90446002C0CDB092C0ADC49
:1003F0002746102001233A4628210090084602F0A3
:100400001DFF02F05EFDC82F00D000E0E6E700BF50
:100410001BE0642003F013FC03F01BF90446002CDE
:100420000FDB092C0DDCA0461020012342462821B9
:100430000090322002F002FF02F043FD0120A649A5
:100440000860B8F1C80F00D000E0E2E700BF85E027
:100450004FF47A70684306EBC60101EB061100EB1E
:10046000810007EB870100EB410000EB080A0298CE
:10047000824532D101207E490860642003F0DFFB11
:1004800000209149C1F89401642003F0D8FB0120B9
:1004900077490860642003F0D2FB00208A49C1F844
:1004A000940100F0F1FD02F02FFD10238BA20A2130
:1004B000084602F097FE02F004FD40F6B83003F063
:1004C000BEFB02F021FD4FF00009CB460020079053
:1004D000C825C826C827A84641E0029882453DD0D5
:1004E0000120634908604FF4FA7003F0A8FB002074
:1004F0007549C1F89401642003F0A1FB01205C4917
:1005000008604FF4FA7003F09AFB00206E49C1F8BE
:100510009401642003F093FB0120554908604FF4D7
:10052000FA7003F08CFB00206749C1F8940102F0D7
:10053000EBFC10236CA20A21084602F053FE02F0E5
:10054000C0FC40F6B83003F07AFB02F0DDFC4FF05F
:100550000009C825C826C827A84600E078E700BFDC
:10056000B9F1000F7FF4FDAEB9F1000F7FF4BBAE1F
:1005700000BFE0E010235EA20A21084602F032FE2E
:1005800010235FA21A210A2002F02CFE10234BA296
:100590002B210A2002F026FE02F093FC3548006869
:1005A00002284ED1012032490860642003F047FB45
:1005B00000204549C1F8940102F0A6FC00202D4915
:1005C00008603AE001F0F4F8102351A21A210A2041
:1005D00002F008FE02F075FC26480068022803D1EC
:1005E0000020244908602BE04C480078012813D0F3
:1005F0004B48007801280FD04A48007801280BD0DA
:1006000049480078012807D048480078012803D0DD
:1006100047480078012810D102F076FC10232FA261
:100620001A210A2002F0DEFD02F04BFC00F02CFD46
:100630004FF47A7003F003FB02E0BBF1000FC1D16D
:1006400000BF0C480068012875D109490860642082
:1006500003F0F5FA00201C49C1F8940102F054FCA3
:10066000002004490860814683460120079066E027
:100670009481214200000020EC16002057454C4395
:100680004F4D452034313600576946692F4E464359
:10069000204F4E0050524553532030003E534543A7
:1006A00052455420434F444500000000204E46432D
:1006B0002D5246494420203100000000204154546E
:1006C000454E44414E54000000802142454E544561
:1006D000522E2E2E000000000400002053554343EC
:1006E00045535321000000004552524F5221000053
:1006F0002053454352455420434F444500000000D9
:100700003E4E46432D524649442020310000000011
:100710004E4643204953204F50454E0032000020A2
:100720003300002034000020350000203600002077
:1007300037000020FFE7BBF1000F7FF41BAF00BFC5
:100740007FE31023AFF258020A21084602F04AFD67
:100750001023AFF2A8021A210A2002F043FD102351
:10076000FEA22B210A2002F03DFD02F0AAFBFE486A
:100770000068012811D1FD490860642003F05FFA88
:100780000020FB49C1F8940102F0BEFB0020F649AD
:1007900008604FF0010983460790F348006802287B
:1007A000CED101200690F1490860642003F047FA99
:1007B0000020EF49C1F8940102F0A6FB0020EA49AD
:1007C00008603AE31023EBA20A21084602F00AFD72
:1007D0001023EBA21A210A2002F004FD02F071FBA3
:1007E00015E000BF02F035FF0446002C0CDB092C9D
:1007F0000ADC2546102001232A462D2100901420D2
:1008000002F01CFD02F05DFBC82D00D000E0E8E71F
:1008100000BF17E0642003F012FA02F01AFF04464A
:10082000002C0CDB092C0ADC264610200123324662
:100830002D2100901E2002F001FD02F042FBC82E87
:1008400000D000E0E6E700BF17E0642003F0F7F90E
:1008500002F0FFFE0446002C0CDB092C0ADC2746C4
:10086000102001233A462D210090282002F0E6FCBA
:1008700002F027FBC82F00D000E0E6E700BF21E030
:10088000642003F0DCF902F0E4FE0446002C0CDBEB
:10089000092C0ADCA0461020012342462D2100909D
:1008A000322002F0CBFC02F00CFB01200390002070
:1008B0000690012005900490B4490860B8F1C80F73
:1008C00000D000E0DCE700BFB5E24FF47A70684387
:1008D00006EBC60101EB061100EB810007EB870177
:1008E00000EB410000EB080A0298824575D102F046
:1008F0000BFB01209D490860642003F0A0F9002053
:100900009B49C1F89401642003F099F901209749AB
:100910000860642003F093F900209549C1F8940120
:100920004FF00109834607908F49086030E2DBE011
:100930008D480068012811D18C490860642003F0BB
:100940007EF900208A49C1F8940181464FF0010BDD
:1009500007908549086002F0D7FAC9E010238CA2FD
:100960000A21084602F03EFC10238DA21A210A201B
:1009700002F038FC10238EA22B210A2002F032FC58
:1009800002F09FFA784800680228D0D102F0BCFA41
:10099000C825C826C827A846A2E0102387A20A2196
:1009A000084602F01FFC02F08CFA17E04FF0000A34
:1009B00002F04FFE0446002C0CDB092C0ADC254615
:1009C000102001232A4628210090142002F036FC32
:1009D00002F077FAC82D01D001E0ECE1E6E700BFB4
:1009E00017E0642003F02BF902F033FE0446002CDC
:1009F0000CDB092C0ADC2646102001233246282174
:100A000000901E2002F01AFC02F05BFAC82E00D003
:100A100000E0E6E700BF17E0642003F010F902F001
:100A200018FE0446002C0CDB092C0ADC274610209B
:100A300001233A4628210090084602F0FFFB02F00D
:100A400040FAC82F00D000E0E6E700BF19E06420BC
:100A500003F0F5F802F0FDFD0446002C0CDB092C38
:100A60000ADCA046102001234246282100903220B3
:100A700002F0E4FB02F025FAB8F1C80F01D001E062
:100A8000E3E1E4E700BF29E04FF47A70684306EB46
:100A9000C60101EB061100EB810007EB870100EBBB
:100AA00041004044029002F02FFA102346A20A218E
:100AB000084602F097FB02F004FA40F6B83003F063
:100AC000BEF802F021FA4FF00009CB460020079053
:100AD0002549086006900590049000E0D4E700BF27
:100AE000049800287FF459AFB9F1000F7FF420AFCC
:100AF00000BFFCE01C480068012812D11B490860B7
:100B0000642003F09CF800201949C1F89401814643
:100B100083460120079000201349086002F0F4F991
:100B2000E9E010232BA20A21084602F05BFB102308
:100B30002CA21A210A2002F055FB10231CA22B2103
:100B40000A2002F04FFB02F0BCF9074800680228B7
:100B50007ED10020044908604CE000003E4154541E
:100B6000454E44414E540000000000209481214233
:100B700000802142456E7465722074686500000033
:100B800050617373576F7264000000000C00002006
:100B90003E524553455420534543524554000000AE
:100BA000204144442F4D4F5645204E4643000000FF
:100BB0002051554954202020203200004E45572016
:100BC000434F444500000000434F444520555044E6
:100BD000415441002052455345542053454352450A
:100BE000540000003E4144442F4D4F5645204E4690
:100BF000430000004FF0010983460120039094490F
:100C00000860642003F01BF800209249C1F89401A9
:100C100002F07AF968E036E001208F49086010237D
:100C20008EA20A21084602F0DDFA10238DA21A21B5
:100C30000A2002F0D7FA02F044F98C480068012833
:100C40000AD100208949086081468346012000E0DE
:100C50004DE0079002F058F984480068022812D14C
:100C600002F052F901E000F0A7FC7B480068002880
:100C7000F9D102F049F9002003907C4908608146CF
:100C80004FF0010B0790B9F1000FC5D129E01023F7
:100C900077A20A21084602F0A5FA102376A21A21AB
:100CA0000A2002F09FFA02F00CF97048006801284F
:100CB00008D100206D4908604FF001098346079074
:100CC00002F022F96948006802280AD10020674929
:100CD0000860079003904FF0010B00F0F7F902F065
:100CE00013F907980028D2D10398002893D1BBF1BB
:100CF000000F7FF4FFAE00BF46E05C4800680128AB
:100D000011D153490860642002F099FF0020514935
:100D1000C1F894014FF001098346079053490860D8
:100D200002F0F2F833E01023AFF258120A2108461D
:100D300002F058FA1023AFF298121A210A2002F09A
:100D400051FA10234EA22B210A2002F04BFA02F096
:100D5000B8F846480068022816D101203C490860CE
:100D6000642002F06CFF00203A49C1F894013F4929
:100D7000086002F0C9F84FF00009CB460020079048
:100D80003A4908600690059007980028B5D100BF41
:100D9000059800287FF4CBADB9F1000F0BD1BBF162
:100DA000000F08D1079830B902F0AEF8C825C82660
:100DB000C827A84640E0029882453CD0012024493B
:100DC00008604FF4FA7002F03AFF00202149C1F8A0
:100DD0009401642002F033FF01201D4908604FF4A4
:100DE000FA7002F02CFF00201A49C1F89401642027
:100DF00002F025FF0120164908604FF4FA7002F056
:100E00001EFF00201349C1F8940102F07DF8102361
:100E1000AFF22C720A21084602F0E4F902F051F810
:100E200040F6B83002F00BFF02F06EF8C825C82675
:100E3000C827A84600E048E500BF069800287FF4D0
:100E4000C1AC079800287FF47CACFFF71FBA000004
:100E500094812142008021420C0000203E41444404
:100E6000000000002052454D4F5645000000002074
:100E700020414444000000003E52454D4F5645007D
:100E80003E5155495420202020320000704700BFB9
:100E9000FEE700BFFEE700BFFEE700BFFEE77047CA
:100EA00070477047704700000CB50020019000901B
:100EB0006C48006840F480306A49086000BF6948A7
:100EC000006800F4003000900198401C01900098E8
:100ED00018B90198B0F5A06FF1D16248006800F42C
:100EE000003010B10120009001E000200090009837
:100EF000012843D15C48006840F010005A4908605E
:100F00000846006820F0030008600846006840F0CA
:100F100002000860534840685249486008464068EB
:100F200048600846406840F4806048600846406871
:100F300020F47C1048600846406840F4E81048609F
:100F40000846006840F08070086000BF45480068AF
:100F500000F000700028F9D04248406820F00300FB
:100F6000404948600846406840F00200486000BFC1
:100F70003C48406800F00C000828F9D10CBD10B5C1
:100F8000FFF792FF10BD10B53648006840F0010031
:100F9000344908600846406834490840314948608F
:100FA00008460068324908402E4908600846006833
:100FB00020F4802008600846406820F4FE00486065
:100FC0004FF41F008860FFF7DAFF4FF000602949F7
:100FD000086010BD10B5002100200022214B5B6885
:100FE00003F00C0121B1042906D0082928D107E01B
:100FF000214B224C236027E01F4B204C236023E031
:10100000184B5B6803F47010164B5B6803F4803276
:10101000022303EB904022B9194B4343174C236042
:101020000DE0104B5B6803F4003323B1144B4343D2
:10103000124C236003E0104B4343104C236003E049
:101040000D4B0E4C236000BF00BF064B5B68C3F323
:1010500003130C4CE15C094B1B68CB40074C23602D
:1010600010BD000000100240002002400000FFF808
:10107000FFFFF6FE08ED00E000127A0018000020E5
:1010800000093D001C00002010B5002408E0F648CF
:101090000068401CF44908600A2002F0D0FD641C7E
:1010A000642CF4DB642408E0EF480068401EEE493D
:1010B00008600A2002F0C3FD641E002CF4DC00204E
:1010C000E9490860E949086010BD704710B502F0B1
:1010D00001FA00240DE00020E5490855E5490855CE
:1010E000E5490855E5490855E5490855E5490855D4
:1010F000641C042CEFDB0120E3490860642002F04B
:101100009EFD0020E149C1F89401642002F097FDA2
:101110000120DD490860642002F091FD0020DA49D9
:10112000086001200860642002F089FD0020D74992
:10113000C1F89401642002F082FD0120D349C1F876
:101140009401642002F07BFD0020D049C1F8940195
:1011500001F0DAFE1023CEA21C21072002F042F893
:1011600001F0AFFE4FF47A7002F069FD01F0CCFEA1
:101170001023C7A21C21072002F034F801F0A1FEC1
:101180004FF47A7002F05BFD01F0BEFE1023C0A2A6
:101190001C21072002F026F801F093FE4FF47A702C
:1011A00002F04DFD10BD3EB50546002446E0285D29
:1011B000C11700EB117109110DF814101DF814007E
:1011C000092806DD1DF814003730C0B20DF81400F0
:1011D00005E01DF814003030C0B20DF81400285D91
:1011E000C11700EB11710911A0EB0111C9B2012265
:1011F00002EB44020DF80210012000EB44001DF840
:10120000000009280CDD012000EB44001DF800005F
:101210003730C0B2012101EB44010DF801000BE0B1
:10122000012000EB44001DF800003030C0B2012165
:1012300001EB44010DF80100601CC4B2042CB6DBC4
:1012400000208DF80800694695A004F0FBFC3EBD27
:1012500070B50446002520E004F0800020B1012193
:10126000924802F054FF03E00121904802F051FF40
:10127000142002F0C0FC04218C4802F04AFF142024
:1012800002F0B9FC0421894802F041FF142002F069
:10129000B2FC6006040E681CC5B2082DDCDB70BD14
:1012A00070B504460D467E2000EA440610217F48B2
:1012B00002F02FFF3046FFF7CBFF2846FFF7C8FFAD
:1012C00010217A4802F023FF70BD70B500251CE0A4
:1012D0006006040E0421754802F01BFF142002F082
:1012E0008AFC4021714802F0F8FE012801D144F047
:1012F0000104142002F07FFC04216C4802F007FF77
:10130000142002F078FC681CC5B2082DE0DB2046F2
:1013100070BD70B504467E2000EA440040F08005B0
:101320001021624802F0F5FE2846FFF791FFFFF713
:10133000CCFF064610215D4802F0E9FE304670BD44
:1013400070B505460C462846FFF7E3FF064646EA19
:1013500004012846FFF7A4FF70BD70B505460C4692
:101360002846FFF7D6FF064626EA04012846FFF77F
:1013700097FF70BD2DE9FE4F0646884691469A4676
:10138000DDF830B0022002900020019000900C2E79
:1013900006D00E2E09D1122001901020009005E0F9
:1013A000772001903020009000E000BF00BF01983E
:1013B00040F080010220FFF773FF80210420FFF737
:1013C000CCFF00210120FFF76BFF80210A20FFF7EF
:1013D000B7FF002505E018F805100920FFF760FFAA
:1013E0006D1C4D45F7D331460120FFF759FF0C2EF8
:1013F00003D180210D20FFF7A3FF4FF47A7500BFC2
:101400000420FFF786FF04466D1E35B104F001008D
:1014100018B9009820400028F2D080210D20FFF755
:101420009CFF05B30620FFF774FF00F01B00F8BB1C
:10143000002002900198204000F0010008B1012036
:1014400002900C2E4BD10A20FFF763FF04460C20BC
:10145000FFF75FFF00F007075FB3601E07EBC000F8
:10146000CBF8000029E03AE014000020040000203E
:10147000390000203D0000204100002045000020F0
:10148000490000204D00002094812142008021422B
:101490004341524420414C4C2052454D4F5645004B
:1014A00049443E3E3E25730D0A00000000080140FD
:1014B00013E0FFE7E000CBF8000004B90124122C90
:1014C00000DD1224002505E00920FFF722FF0AF8BD
:1014D00005006D1CA542F7D301E002200290802197
:1014E0000C20FFF72DFF00210120FFF7D9FE029805
:1014F000BDE8FE8FF0B587B00546002708210846F5
:10150000FFF72BFF00210D20FFF7CAFE80210E20E0
:10151000FFF723FF93208DF8080020208DF80900A5
:1015200001A802AB022202A900900C20FFF722FFC3
:10153000064686B9002407E002A8005D285502A8E7
:10154000005D4740601CC4B2042CF5DB02A8005DBE
:10155000B84200D0022680210E20FFF7F1FE30466F
:1015600007B0F0BD70B588B005460C4608210846A6
:10157000FFF7F3FE07210D20FFF792FE0321142051
:10158000FFF7DEFE8DF80C5002A803AB012203A981
:1015900000900C20FFF7EEFE06464EB90298102888
:1015A00006D19DF80C0020709DF80D00607000E0E1
:1015B0000226304608B070BD10B501F08BFF102335
:1015C000FDA21C21072001F00DFE01F07AFCFE496E
:1015D0005220FFF7C7FFFD49087008460078002831
:1015E0007ED102200870FA48FFF784FFF74908709F
:1015F000F748FFF7D8FDF7480068062810D101F03A
:1016000083FC1023F4A21C21072001F0EBFD01F064
:1016100058FC4FF47A7002F012FB0020F149086088
:10162000EC48006805281CD1002418E0E848005D5B
:10163000ED4908550620E749086001F065FC1023D4
:10164000EAA21C21072001F0CDFD01F03AFC4FF485
:101650007A7002F0F4FA0020E2490860641C042C5D
:10166000E4DBDC48006804281CD1002418E0D848DA
:10167000005DE24908550520D649086001F044FCA8
:101680001023DFA21C21072001F0ACFD01F019FCA2
:101690004FF47A7002F0D3FA0020D2490860641C3B
:1016A000042CE4DBCB48006803281ED100241AE098
:1016B000C748005DD64908550420C649086001F0B6
:1016C00023FC1023D3A21C21072001F08BFD01F085
:1016D000F8FB4FF47A7002F0B2FA0020C14900E042
:1016E00065E00860641C042CE2DBBA48006802284C
:1016F0001CD1002418E0B648005DCA4908550320F3
:10170000B449086001F000FC1023C7A21C21072087
:1017100001F068FD01F0D5FB4FF47A7002F08FFA0A
:101720000020B0490860641C042CE4DBA948006870
:1017300001281CD1002418E0A548005DBE490855C9
:101740000220A449086001F0DFFB1023BBA21C218A
:10175000072001F047FD01F0B4FB4FF47A7002F06E
:101760006EFA00209F490860641C042CE4DB994851
:101770000068E0B9002418E09548005DB3490855B9
:1017800001209449086001F0BFFB1023B0A21C2186
:10179000072001F027FD01F094FB4FF47A7002F06E
:1017A0004EFA00208F490860641C042CE4DB10BD55
:1017B00010B585495220FFF7D5FE844908700846C8
:1017C000007800287ED1022008708148FFF792FE41
:1017D0007E4908707E48FFF7E6FC7D4800789B490B
:1017E0000978884230D17A484078984949788842C7
:1017F0002AD17748807895498978884224D17448DD
:10180000C0789249C97888421ED101209449087055
:1018100094A004F017FAFFF737FC012097490860FD
:10182000642002F00CFA00209549C1F8940164206C
:1018300002F005FA012091490860642002F0FFF9E6
:1018400000208F49C1F89401614800787A490978ED
:10185000884230D15E4840787749497888422AD119
:101860005B48807874498978884224D15848C07888
:101870007149C97888421ED101208249087082A02E
:1018800004F0E0F9FFF700FC01207C4908606420C7
:1018900002F0D5F900207A49C1F89401642002F0E1
:1018A000CEF9012075490860642002F0C8F90020D3
:1018B0007349C1F89401464800785A49097888422A
:1018C00032D100E068E14248407856494978884280
:1018D0002AD13F48807853498978884224D13C48AE
:1018E000C0785049C97888421ED101206C490870DF
:1018F0006CA004F0A7F9FFF7C7FB01205F4908605F
:10190000642002F09CF900205D49C1F89401642034
:1019100002F095F9012059490860642002F08FF91E
:1019200000205749C1F894012948007838490978BE
:10193000884230D1264840783549497888422AD1B2
:101940002348807832498978884224D12048C07859
:101950002F49C97888421ED101205849087058A0E3
:1019600004F070F9FFF790FB0120444908606420FF
:1019700002F065F900204249C1F89401642002F0A8
:101980005EF901203D490860642002F058F900200A
:101990003B49C1F894010E480078184909788842FB
:1019A00008D10B48407815494978884202D1084847
:1019B000807891E0B9E000005055542043415244F2
:1019C000204F4E2E2E0000002C000020B1000020E1
:1019D0002E00002008000020434152442046554C70
:1019E0004C2100000C0000204D00002043415244D7
:1019F0002036204953204F4E0000000049000020AF
:101A0000434152442035204953204F4E00000000EE
:101A100045000020434152442034204953204F4E7A
:101A2000000000004100002043415244203320497F
:101A300053204F4E000000003D000020434152441F
:101A40002032204953204F4E000000003900002072
:101A5000434152442031204953204F4E00000000A2
:101A6000320000200D0A54686520557365722069A4
:101A7000733A636172645F300D0A00009481214201
:101A800000802142330000200D0A54686520557300
:101A900065722069733A636172645F310D0A0000F8
:101AA000340000200D0A5468652055736572206962
:101AB000733A636172645F320D0A000035000020E2
:101AC0000D0A54686520557365722069733A636125
:101AD00072645F330D0A0000FE498978884224D180
:101AE000FD48C078FB49C97888421ED10120FB49D6
:101AF0000870FBA004F0A6F8FFF7C6FA0120FE4923
:101B00000860642002F09BF80020FC49C1F89401B1
:101B1000642002F094F80120F7490860642002F084
:101B20008EF80020F549C1F89401EB480078F4499B
:101B30000978884230D1E8484078F14949788842AC
:101B40002AD1E5488078EE498978884224D1E24854
:101B5000C078EB49C97888421ED10120E949087054
:101B6000E9A004F06FF8FFF78FFA0120E24908605E
:101B7000642002F064F80020E049C1F89401642078
:101B800002F05DF80120DC490860642002F057F89B
:101B90000020DA49C1F8940110BD2DE9F041074653
:101BA0008846154604210520FFF7D7FB00210120B8
:101BB000FFF776FB80210A20FFF7C2FB002405E037
:101BC000395D0920FFF76CFB601CC4B24445F7DBAC
:101BD00003210120FFF764FBFF2400BF0520FFF76E
:101BE00098FB0646601EC4B21CB106F00400002833
:101BF000F4D02220FFF78DFB28702120FFF789FB0E
:101C00006870BDE8F081F0B587B005460E4630201B
:101C10008DF808008DF809500DF10A02022102A882
:101C2000FFF7BBFF01A802AB042202A900900C2021
:101C3000FFF7A0FB074667B90198902809D1002457
:101C400004E002A8005D3055601CC4B2102CF8DB23
:101C500000E00227384607B0F0BDF0B587B0064671
:101C60000F46A0208DF808008DF809600DF10A02DA
:101C7000022102A8FFF791FF01A802AB042202A9EA
:101C800000900C20FFF776FB054645B90198042823
:101C900005D19DF8080000F00F000A2800D00225A9
:101CA00035BB1022394602A804F0F0F8002404E005
:101CB000385D02A90855601CC4B2102CF8DB06AAD6
:101CC000102102A8FFF769FF01A802AB122202A9A6
:101CD00000900C20FFF74EFB054645B901980428FB
:101CE00005D19DF8080000F00F000A2800D0022559
:101CF000284607B0F0BD2DE9F04387B006460F46F1
:101D0000904699468DF808608DF80970002406E029
:101D100018F8041002AAA01C1154601CC4B2062CAE
:101D2000F6DB002407E019F8041002AA04F1080009
:101D30001154601CC4B2062CF5DB01A802AB0C22C6
:101D400002A900900E20FFF715FB05462DB90820CB
:101D5000FFF7DFFA00F0080000B90225284607B0B7
:101D6000BDE8F08370B588B0054693208DF80C006F
:101D700070208DF80D0000208DF8120000240BE07B
:101D8000295D03AAA01C11549DF81200295D48404A
:101D90008DF81200601CC4B2042CF1DB0DF11302AB
:101DA000072103A8FFF7F9FE08210846FFF7D5FA37
:101DB00002A803AB092203A900900C20FFF7DAFA6E
:101DC000064626B90298182801D1002600E002260E
:101DD000304608B070BD10B5002451495220FFF7BD
:101DE000C1FB504908700846007830B902200870DD
:101DF0003948FFF77FFB4B4908704A4800780028B4
:101E000066D10220474908703348FFF7CCF93248C1
:101E1000007845490978884218D12F4840784249CE
:101E20004978884212D12C4880783F498978884285
:101E30000CD12948C0783C49C978884206D1012094
:101E40003A490870AFF2E43003F0FCFE2248007813
:101E500037490978884218D11F4840783449497871
:101E6000884212D11C4880783149897888420CD147
:101E70001948C0782E49C978884206D101202D49D9
:101E80000870AFF2FC3003F0DDFE134800782A49F9
:101E90000978884218D11048407827494978884203
:101EA00012D10D4880782449897888420CD10A489B
:101EB000C0782149C978884206D101201F4908709D
:101EC000AFF2204003F0BEFE034800781C4939E021
:101ED00078E00000490000202E000020360000209D
:101EE0000D0A54686520557365722069733A636101
:101EF00072645F340D0A0000948121420080214207
:101F00004D000020370000200D0A546865205573ED
:101F100065722069733A636172645F350D0A00006F
:101F20002C000020B10000203900002032000020E9
:101F30003D0000203300002041000020340000203C
:101F4000450000200978884218D1F9484078F949BD
:101F50004978884212D1F6488078F64989788842D3
:101F60000CD1F348C078F349C978884206D10120E2
:101F7000F1490870AFF2B84003F064FEEC48007815
:101F8000EE490978884218D1E9484078EB49497808
:101F9000884212D1E6488078E849897888420CD195
:101FA000E348C078E549C978884206D10120E44970
:101FB0000870AFF2D40003F045FEDD48FFF7D2FE13
:101FC000E0490870DF480078002826D10220DD496A
:101FD0000870D74BDC4A0B216020FFF78CFED949F3
:101FE00008700846007818B9D8A003F02BFE02E06C
:101FF000DDA003F027FECE4BE24A0B216120FFF764
:102000007AFED04908700846007818B9DEA003F0BF
:1020100019FE02E0E3A003F015FECA48007810BBE9
:102020000220C8490870E649E6480078FFF7EBFD52
:10203000C44908700846007890B9E3A003F002FE96
:10204000002406E0DE48015DE1A003F0FBFD601C1A
:10205000C4B2102CF6DBAFF2641003F0F3FD02E023
:10206000DDA003F0EFFDB7480078F0B90220B549D4
:102070000870DEA003F0E6FD4FF47A7001F0DFFD9A
:10208000E949D0480078FFF7E8FDAE4908700846F6
:10209000007818B9E5A003F0D5FD06E0E9A003F04B
:1020A000D1FD40F6B83001F0CAFDA648007808BB63
:1020B0000220A4490870C249C2480078FFF7A3FD76
:1020C000A04908700846007888B9BFA003F0BAFD9F
:1020D000002406E0BA48015DBDA003F0B3FD601C1A
:1020E000C4B2102CF6DBC0A003F0ACFD02E0BAA035
:1020F00003F0A8FD9348007848B902209149087080
:10210000D5A003F09FFD4FF47A7001F098FD10BD4B
:1021100070B500240F25DC495220FFF723FA8949C6
:1021200008700846007830B9022008708048FFF730
:10213000E1F98449087083480078002848D10220DA
:10214000804908707A48FFF72EF879480078CF491F
:102150000978884218D176484078CC494978884235
:1021600012D173488078C949897888420CD1704867
:10217000C078C649C978884206D10120C449087090
:10218000AFF2207003F05EFD69480078C14909781C
:10219000884218D166484078BE494978884212D1B1
:1021A00063488078BB49897888420CD16048C07800
:1021B000B849C978884206D10120B7490870AFF202
:1021C000387003F03FFD5A48FFF7CCFD5D490870B9
:1021D0005C48007800282AD102205A490870544BE4
:1021E000594A29466020FFF786FD5649087008467F
:1021F000007818B955A003F025FD06E05AA003F0B9
:1022000021FD00204F49087050E0494B5D4A2946A6
:102210006120FFF770FD4B4908700846007818B937
:1022200059A003F00FFD02E05EA003F00BFD45484E
:10223000007800BB02204349087061492846FFF737
:10224000E2FC404908700846007888B95EA003F0B7
:10225000F9FC002406E05A48015D5DA003F0F2FCA1
:10226000601CC4B2102CF6DB5FA003F0EBFC02E0B4
:1022700059A003F0E7FC33480078B0B90220314997
:10228000087086492846FFF7E8FC2E490870084682
:10229000007818B982A003F0D5FC06E087A003F00F
:1022A000D1FC40F6B83001F0CAFC00BF25480078E8
:1022B000002826D10220234908701D4B864A294652
:1022C0006020FFF718FD1F4908700846007818B90C
:1022D00082A003F0B7FC02E087A003F0B3FC144B2C
:1022E0008C4A29466120FFF706FD1649087008460A
:1022F000007818B988A003F0A5FC02E08DA003F0D7
:10230000A1FC1048007880B902200E4908702C49C1
:102310002846FFF778FC0B4908700846007828B972
:1023200029A003F08FFC00241AE124E11FE1000042
:102330002E0000204500002035000020490000202C
:1023400036000020B100002051000020506364419D
:1023500075746853746174652841292073756363CB
:102360006573730D0A00000050636441757468530F
:1023700074617465284129206661696C65640D0A81
:1023800000000000570000205063644175746853DA
:102390007461746528422920737563636573730DD6
:1023A0000A00000050636441757468537461746579
:1023B000284229206661696C65640D0A00000000EE
:1023C00010170020B2000020444154413A000000A0
:1023D0002530327800000000506364526561642843
:1023E00029206661696C65640D0A00005772697482
:1023F000652074686520636172642061667465722B
:102400002031207365636F6E642E20446F206E6FE1
:1024100074206D6F76652074686520636172642135
:1024200021210D0A00000000A10000205063645724
:1024300072697465282920737563636573730D0A67
:102440000000000050636457726974652829206693
:1024500061696C65640D0A0052433532325F486130
:102460006E646C6528292072756E2066696E6973CA
:102470006865642061667465722031207365636FDE
:102480006E64210D0A0000002C000020390000209D
:10249000320000203D0000203300002063000020B7
:1024A0005063645772697465285246494431292043
:1024B000737563636573730D0A000000506364579E
:1024C0007269746528524649443129206661696CF5
:1024D00065640D0A00000000830000205063644121
:1024E000757468537461746528413129207375636C
:1024F000636573730D0A000050636441757468531B
:102500007461746528413129206661696C65640DC8
:102510000A0000008F000020506364417574685306
:102520007461746528423129207375636365737320
:102530000D0A0000506364417574685374617465DA
:1025400028423129206661696C65640D0A0000002B
:10255000FE48015DAFF2881003F074FB601CC4B24A
:10256000102CF5DBAFF2801003F06CFB03E0AFF250
:10257000981003F067FBF6480078B0B90220F449E0
:102580000870F4492846FFF768FBF14908700846CF
:10259000007818B9F0A003F055FB06E0F5A003F0B1
:1025A00051FB40F6B83001F04AFBE9480078F8B931
:1025B0000220E7490870E5492846FFF724FBE44973
:1025C000087008460078A0B9AFF2042003F03AFB87
:1025D000002407E0DD48015DAFF20C2003F032FB80
:1025E000601CC4B2102CF5DBAFF2042003F02AFB10
:1025F00003E0AFF21C2003F025FBD548007848B972
:102600000220D3490870E2A003F01CFB4FF47A705B
:1026100001F015FB70BD30B5C5B0132500240020B6
:10262000439044904FF48272E54902A803F073FC92
:10263000002000900190E3495220FEF793FFC44927
:1026400008700846007830B902200870DE48FEF7AE
:1026500051FFBF490870BE48007800282FD10220E2
:10266000BB490870D848FEF79EFDD7480078D74987
:102670000978884219D1D4484078D44949788842A9
:1026800013D1D1488078D149897888420DD1CE487C
:10269000C078CE49C978884207D10120CC4908705A
:1026A000AFF6404003F0CEFA04E0CAA003F0CAFA45
:1026B00045B030BDC448FFF755FBA5490870A44894
:1026C000007800287ED10220A149087000208DF8F2
:1026D000000094E000208DF8010085E000208DF8D6
:1026E000020077E000208DF8030067E000208DF8FD
:1026F000040059E000208DF805004BE09DF8000033
:1027000002A9085C8DF80C019DF80100085C8DF8A9
:102710000D019DF80200085C8DF80E019DF8030084
:10272000085C8DF80F019DF80400085C8DF810011D
:102730009DF80500085C8DF81101A34B43AA2946BA
:102740006020FFF7D8FA824908700846007820B95F
:10275000AFF2084003F076FA57E0AFF6985003F076
:1027600071FA994B43AA29466120FFF7C4FA7849C8
:1027700008700846007820B9AFF2F43003F062FA2E
:1027800043E09BA003F05EFA9DF80500401CC0B238
:102790008DF805009DF80500FF28AFDD9DF80400C9
:1027A000401CC0B28DF804009DF80400FF28A1DD94
:1027B0009DF80300401CC0B28DF803009DF8030093
:1027C000FF2800E020E091DD9DF80200401CC0B22F
:1027D0008DF802009DF80200FF2883DD9DF80100BE
:1027E000401CC0B28DF801009DF80100FF287FF762
:1027F00075AF9DF80000401CC0B28DF800009DF838
:102800000000FF287FF766AF00BF5148007818BB73
:1028100002204F4908704D492846FFF7F4F94C490A
:1028200008700846007898B9AFF2644003F00AFADD
:10283000002407E04548015DAFF26C4003F002FA66
:10284000601CC4B2102CF5DB5CA003F0FBF903E0C4
:10285000AFF27C4003F0F6F940F6B83001F0EFF942
:1028600000BF25E710B51420FEF753FD044604F021
:10287000030018B903211420FEF762FD10BD10B546
:102880000446412C24D108210846FEF766FD3D216F
:102890001120FEF705FD86211720FEF701FD7F219F
:1028A0002620FEF7FDFC1E212D20FEF7F9FC00215D
:1028B0002C20FEF7F5FC8D212A20FEF7F1FC3E21AD
:1028C0002B20FEF7EDFC022001F095F9FFF7CAFF7F
:1028D00010BD10B50421474801F019FC012001F09A
:1028E0008AF90421434801F014FC012001F083F926
:1028F0000421404801F00BFC012001F07CF90F217C
:102900000120FEF7CDFC00BF0120FEF702FD00F024
:1029100010000028F8D1012001F06DF93D211120AF
:10292000FEF7BEFC1E212D20FEF7BAFC00212C2054
:10293000FEF7B6FC8D212A20FEF7B2FC3E212B20AB
:10294000FEF7AEFC4021152056E0000010170020D5
:10295000B1000020730000205063645772697465F1
:102960002852464944322920737563636573730D99
:102970000A00000050636457726974652852464922
:10298000443229206661696C65640D0A000000000C
:1029900052433532325F48616E646C6531282920BC
:1029A00072756E2066696E6973686564206166740D
:1029B00065722031207365636F6E64210D0A00001B
:1029C0002C6100082C0000202E000020390000207F
:1029D000320000200D0A5468652055736572206925
:1029E000736E27743A636172645F300D0A000000F1
:1029F0002C00000000100140FEF752FC10BD00B595
:102A000087B00121142001F091FD0121080301F09C
:102A10009AFD1020ADF818008DF81B0003208DF8EA
:102A20001A0006A9904801F0C5FA0420ADF8180074
:102A300010208DF81B0003208DF81A0006A98A4883
:102A400001F0B8FA4020ADF8180004208DF81B0002
:102A500003208DF81A0006A9834801F0ABFA012083
:102A6000ADF8180010208DF81B0003208DF81A0017
:102A700006A97D4801F09EFA0420ADF81800102048
:102A80008DF81B0003208DF81A0006A9774801F085
:102A900091FA0020ADF804004FF48270ADF8060002
:102AA0000020ADF808000220ADF80A000120ADF8C2
:102AB0000C004002ADF80E003820ADF810000020E8
:102AC000ADF812000720ADF8140001A9684802F023
:102AD000C9FE0121664802F06AFF07B000BD10B5CB
:102AE000FFF78DFF0421614801F011FB10215E48C2
:102AF00001F00DFBFFF7EDFE4120FFF7C0FE10BD1A
:102B000010B503211420FEF728FC10BD00B587B0D6
:102B100050208DF8080000208DF809000DF10A0200
:102B2000022102A8FFF739F801A802AB042202A98A
:102B300000900C20FEF71EFC002007B000BD2DE920
:102B4000F84F06460F4693469846DDE90A9A002557
:102B50000020009069465220FEF704FD04461CB98F
:102B60006846FEF720FB01E0BDE8F88F6846FEF7F7
:102B7000C1FC044604B1F7E73046FFF7F3F804461A
:102B80001CB13CA003F05EF8EEE73FB933465A466D
:102B900049466020FFF7AFF8044606E033465A4640
:102BA00049466120FFF7A7F804461CB136A003F0A0
:102BB00049F8D9E7B8F1000F1ED051464846FFF753
:102BC00022F804469CB935A003F03CF8002507E044
:102BD0001AF80510AFF6080003F034F8681CC5B207
:102BE000102DF5DBAFF22C2003F02CF813E0AFF63C
:102BF000180003F027F8B7E751464846FFF72DF8CD
:102C000004461CB927A003F01DF804E0AFF2CC7015
:102C100003F018F8A8E7FFF779FF04461CB927A0CE
:102C200003F010F803E02BA003F00CF89CE700BFC2
:102C30009AE738B516E069465220FEF793FC044641
:102C400064B169465220FEF78DFC044634B16946F2
:102C50005220FEF787FC044604B138BD4FF47A7069
:102C600000F0EDFFE7E70000000801400010014020
:102C70000030014055494420646F6E2774206D6117
:102C80007463680D0A0000004B455920646F6E277D
:102C900074206D617463680D0A00000064617461E2
:102CA0003A000000506364577269746528292066F1
:102CB000696E69736865640D0A00000050636448BA
:102CC000616C7428292066696E69736865640D0AF1
:102CD0000000000050636448616C7428292066611C
:102CE000696C65640D0A000008B50121082001F037
:102CF0001DFC2020ADF8000010208DF803000320FB
:102D00008DF802006946124801F054F9202110485C
:102D100001F0FDF94FF48070ADF8000028208DF827
:102D2000030003208DF802006946094801F042F9CA
:102D30004FF40060ADF8000010208DF80300012072
:102D40008DF802006946024801F034F908BD000020
:102D5000000C014010B54FF48071FA4801F0D7F92A
:102D60004FF40071F74801F0D4F94FF40071F548C1
:102D700001F0CDF910BD10B54FF48071F14801F0AC
:102D8000C6F94FF48071EF4801F0C3F910BD70B57A
:102D90000446002520E04FF48071EA4801F0B9F9BB
:102DA00004F0800028B14FF40071E64801F0AFF95B
:102DB00004E04FF40071E34801F0ABF94FF4807187
:102DC000E04801F0A4F94FF48071DE4801F0A1F968
:102DD0006006040E681CC5B2082DDCDB70BD10B5A2
:102DE0004FF40071D74801F092F94FF48071D54843
:102DF00001F08DF94FF40071D24801F08AF94FF4D7
:102E00008071D04801F085F910BD70B505460C46BB
:102E1000FFF7E5FF7820FFF7BAFFFFF7ACFF1CB123
:102E20004020FFF7B4FF02E00020FFF7B0FFFFF7FC
:102E3000A2FF2846FFF7ABFFFFF79DFFFFF78AFFD2
:102E400070BD10B504461CB90021A620FFF7DDFFB8
:102E5000012C03D10021A720FFF7D7FF10BD10B52B
:102E600004463CB90021C820FFF7CFFF0021A12074
:102E7000FFF7CBFF012C07D10021C020FFF7C5FFD2
:102E80000021A020FFF7C1FF10BD10B500218D204B
:102E9000FFF7BBFF00211420FFF7B7FF0021AF2091
:102EA000FFF7B3FF10BD10B500218D20FFF7ADFF78
:102EB00000211020FFF7A9FF0021AF20FFF7A5FF99
:102EC00010BD70B500241CE004F1B001C8B20021AF
:102ED000FFF79BFF00210846FFF797FF0021102016
:102EE000FFF793FF002508E0974901EBC501085D56
:102EF0000121FFF78AFF681CC5B2802DF4DB601C3E
:102F0000C4B2082CE0DB70BD70B500240CE00025D5
:102F100006E000208C4901EBC5010855681CC5B2CC
:102F2000802DF6DB601CC4B2082CF0DBFFF7C9FF74
:102F300070BD70B50A46CE1701EB5676C6F3C703CF
:102F4000CE1701EB5676F610A1EBC606F4B20122BD
:102F5000A240D5B27C4A02EBC002D25C2A437A4E30
:102F600006EBC006F25470BD70B50B46CE1701EBF0
:102F70005676C6F3C702CE1701EB5676F610A1EBD4
:102F8000C606F4B20123A340DDB26F4B03EBC003CE
:102F90009B5CDB436C4E06EBC006B3546A4B03EB01
:102FA000C0039B5C2B43684E06EBC006B354664BD4
:102FB00003EBC0039B5CDB43634E06EBC006B354DC
:102FC00070BD2DE9F84F05460E4617469846BD429E
:102FD0000DD1002406E03019C1B22846FFF7A9FF41
:102FE000601CC4B2A8EB0600A042F4DC30E0464509
:102FF0000CD1002406E02919C8B23146FFF799FF29
:10300000601CC4B2781BA042F5DC21E0A8EB0600EE
:1030100000F0FF0A781B00F0FF0B0AEB8A0040006B
:1030200090FBFBF000F0FF0900240EE004FB09F028
:103030000A2190FBF1F03044C0B229190090C8B2C7
:103040000099FFF776FF601CC4B2781BA042EDDC4C
:10305000BDE8F88F2DE9F04306460F46904600255F
:1030600044463BE03A1BD1B27219D0B2FFF761FF80
:103070003A1BD1B2721BD0B2FFF75BFF3A19D1B243
:10308000721BD0B2FFF755FF3A19D1B27219D0B204
:10309000FFF74FFF7A19D1B23219D0B2FFF749FFCB
:1030A0007A1BD1B23219D0B2FFF743FF7A1BD1B2EB
:1030B000321BD0B2FFF73DFF7A19D1B2321BD0B22A
:1030C000FFF737FF6D1C05FB05F004FB040008FB50
:1030D0001809B9F1000F01DD641E6D1E6000604328
:1030E00008FB08F18842BDDABDE8F0832DE9FF4F07
:1030F00081B080460E461C4600962046E31704EB3E
:103100005373DB1021464FEAE47C04EB5C7C4FEA0E
:10311000EC0CA4EBCC0CBCF1000F02D04FF0010C76
:1031200001E04FF0000C6344224604EBD27C4FEAEE
:103130006C0C03FB0CF303F0FF0B03982038C7B2B1
:1031400000254BE000100140401700200C2C07D157
:1031500007EB4700FE4901EB800010F805A014E0E2
:10316000102C05D1FB4800EB071010F805A00CE06F
:10317000182C07D107EBC700F74901EB800010F8C6
:1031800005A002E005B0BDE8F08F4FF000091FE098
:103190000AF0800020B131464046FFF7CAFE03E046
:1031A00031464046FFF7E0FE4FEA4A604FEA106AB8
:1031B000701CC6B20098301AA04205D1009E08F1DA
:1031C000010000F0FF0806E009F1010000F0FF092E
:1031D000B9F1080FDCDB00BF681CC5B25D45B5DB8B
:1031E00000BFCFE7F0B506460F4614461D4613E074
:1031F00022782B4639463046FFF778FF284605EB04
:10320000D07106EB6101CEB2C5F18000B04202DAA6
:103210000026B81CC7B2641C2078202802DB207866
:103220007E28E5DDF0BD10B50246012000E05043E8
:103230000B00A1F10104E1B2F9D110BD2DE9F04F6D
:1032400006468A4691461F46099C00252CE0781BBD
:10325000401EC1B20A20FFF7E6FFB9FBF0F00A21D9
:10326000B0FBF1F201FB1208B8F1000F0CD1A3463C
:1032700004EBDB71491001FB0561C8B22346302223
:103280005146FFF733FF0DE0A34604EBDB71491015
:1032900001FB0561C8B208F13001CAB223465146AC
:1032A000FFF724FF681CC5B2BD42D0DBBDE8F08F3C
:1032B0002DE9FF4F0746884691461C464FF0000B0C
:1032C0000297CDF804802046E11704EB5171C1F359
:1032D000C701009160E009FB04F0C11700EB5171D8
:1032E0000BEBE101CEB20BF1010000F0FF0B00256A
:1032F00050E0102C05D1994800EB0610405D03907A
:103300001BE0182C07D106EBC600954901EBC00065
:10331000405D039011E0202C05D1924800EBC610CF
:10332000405D039009E0402C05D18F4800EB46201A
:10333000405D039001E0BDE8FF8F4FF0000A17E009
:10334000039800F0010020B141463846FFF7F1FD37
:1033500003E041463846FFF707FE0398401003900C
:1033600008F1010000F0FF080AF1010000F0FF0A77
:10337000BAF1080FE4DB781CC7B20298381AA042F1
:1033800004D1029F01980830C0B20190DDF804809A
:10339000681CC5B2A542ACDB0098411EC9B20091C1
:1033A000002898D100BFC6E780468946002600273E
:1033B00049E03FB91023324618218020FFF778FFFB
:1033C000701CC6B2464522D14FF0000A1AE0002414
:1033D00010E000250AE0654800EBC400415D601E76
:1033E000624A02EBC0004155681CC5B2082DF2DBF1
:1033F000601CC4B2902CECDBFFF763FD0AF1010006
:1034000000F0FF0A4FEA09105045E0DC0026781C66
:10341000C7B2102F00D10027002410E000250AE0D9
:10342000524800EBC400415D601E504A02EBC000F0
:103430004155681CC5B2082DF2DB601CC4B2902C4B
:10344000ECDBFFF73EFDB4E770B504460D4605F131
:10345000B001C8B20021FFF7D8FC102141EA1410D6
:103460000021FFF7D2FC04F00F000021FFF7CDFC94
:1034700070BD2DE9F05F05460E4617469846DDF80B
:1034800028B04FF00009CA460024E11704EB51713F
:10349000C910A4EBC10101B901E0601CC4B23446FB
:1034A00014E021462846FFF7CFFFAA460AE01BF8A2
:1034B00009000121FFF7A9FC09F101090AF1010046
:1034C00000F0FF0ABA45F2DB601CC4B24445E8DBF9
:1034D000BDE8F09F08B50121102001F027F84FF456
:1034E0004070ADF8000010208DF8030003208DF827
:1034F000020069461E4800F05DFD4FF440711C4813
:1035000000F005FEC82000F09AFB0021AE20FFF776
:103510007CFC00210846FFF778FC00211020FFF713
:1035200074FC00214020FFF770FC0021B020FFF761
:103530006CFC00218120FFF768FC0021FF20FFF7D1
:1035400064FC0021A120FFF760FC0021A62011E00F
:103550002D620008A1660008916C0008B3000020ED
:1035600013020020EB020020EB0600204017002091
:1035700000100140FFF749FC0021A820FFF745FC9F
:1035800000213F20FFF741FC0021C820FFF73DFC50
:103590000021D320FFF739FC00210846FFF735FC56
:1035A0000021D520FFF731FC00218020FFF72DFC02
:1035B0000021D820FFF729FC00210520FFF725FC7A
:1035C0000021D920FFF721FC0021F120FFF71DFC8D
:1035D0000021DA20FFF719FC00211220FFF715FC6B
:1035E0000021DB20FFF711FC00213020FFF70DFC4C
:1035F00000218D20FFF709FC00211420FFF705FCB6
:103600000021AF20FFF701FC08BD000008B5012133
:10361000142000F08BFFAA20ADF8000048208DF8A0
:1036200003006946984800F0C5FC4AF20A00ADF86C
:10363000000010208DF8030003208DF80200694679
:10364000924800F0B7FC4AF20A01904800F05FFD92
:1036500008BD10B5044600208D4908608D49C1F8A9
:10366000BC018B49303908608A49C1F88C010221BC
:10367000854800F032FD012819D10821824800F068
:103680002CFD012813D120217F4800F026FD0128C0
:103690000DD120217C4800F020FD012807D1802198
:1036A000794800F01AFD012801D1C82010BD02217F
:1036B000754800F012FD78B10821734800F00DFD47
:1036C00050B12021704800F008FD28B180216E48DB
:1036D00000F003FD002873D1162000F0B0FA01209D
:1036E00000F0ADFA00206A49086001206949C1F87C
:1036F000BC016749303908606649C1F88C01022174
:10370000614800F0EAFC08B90D20CFE708215E48C7
:1037100000F0E3FC08B90C20C8E720215A4800F06B
:10372000DCFC08B90B20C1E78021574800F0D5FC2C
:1037300008B90A20BAE7012000F081FA01205449B3
:10374000086000205349C1F8BC01012050493039BC
:1037500008605049C1F88C0102214B4800F0BDFCC3
:1037600008B90F20A2E70821474800F0B6FC08B9C5
:1037700009209BE72021444800F0AFFC08B906204F
:1037800094E78021404800F0A8FC08B903208DE7A9
:10379000012000F054FA01203D4908603D49C1F87C
:1037A000BC0100203A493039086001203949C1F88C
:1037B0008C010221344800F090FC10B9002075E71C
:1037C00040E00821304800F088FC08B908206DE787
:1037D00020212D4800F081FC08B9052066E78021F2
:1037E000294800F07AFC08B902205FE7012000F0C8
:1037F00026FA0120264908602649C1F8BC0124495F
:103800003039086000202349C1F88C0102211E488C
:1038100000F063FC08B90E2048E708211A4800F0C0
:103820005CFC08B9072041E72021174800F055FC4F
:1038300008B904203AE78021134800F04EFC08BB89
:10384000012033E70221104800F047FC012819D17C
:1038500008210D4800F041FC012813D120210A481D
:1038600000F03BFC01280DD12021074800F035FC79
:10387000012807D18021044800F02FFC012801D144
:10388000C82013E7C82011E70008014000100140DC
:10389000B40122420000224208B50121142000F0A8
:1038A00045FE0121284800F056FC4FF40040ADF8D9
:1038B000000048208DF803006946244800F07AFB98
:1038C0002020ADF8000048208DF80300694620480C
:1038D00000F070FB08BD10B5044614B101201D496D
:1038E00008701C480078F8B12021194800F0F5FB59
:1038F00028B14FF40041154800F0EFFBA0B90A20B1
:1039000000F09DF90020134908702021104800F0B4
:10391000E4FB08B9012010BD4FF400410B4800F052
:10392000DCFB78B90220F6E72021094800F0D5FB3E
:10393000012807D1C103054800F0CFFB012801D1C0
:10394000044908700020E6E700023000000801404A
:1039500000100140EB1600200EB50121084600F0D2
:10396000E5FDFFF799FF0521022000F039FC20203A
:10397000019000208DF808000C208DF8090001202E
:103980008DF80A0001A802F0DBF80F21002000F0FA
:1039900027FC4FF40040019000208DF808000C2017
:1039A0008DF8090001208DF80A0001A802F0C8F87E
:1039B00017208DF8000002208DF8010001208DF8FD
:1039C00002008DF80300684600F02BFA28208DF8DD
:1039D000000002208DF8010000208DF80200012077
:1039E0008DF80300684600F01CFA0EBD10B50A20E1
:1039F00000F025F920210E4800F06FFB10B90120DE
:103A00000C490860202002F012F910BD10B50A2000
:103A100000F015F94FF40041074800F05EFB10B9C3
:103A20000220044908604FF4004002F000F910BD84
:103A30000010014000000020000801407FB505464D
:103A40000C460121084600F07EFDADF80850ADF8A7
:103A500004400020ADF80A00ADF8060001A94FF0BF
:103A6000804000F09BFE01221146900701F00DFA04
:103A70001C208DF8000000208DF8010003208DF837
:103A8000020001208DF80300684600F0CAF9012108
:103A9000880701F0DFF97FBD10B50121880701F02B
:103AA000A2FC48B30121880701F0AEFC4FF48071FD
:103AB000124800F012FBF8B90120114908601149C1
:103AC0000860642000F0BBF800200F49C1F89401A1
:103AD000642000F0B4F801200A490860642000F076
:103AE000AEF800200849C1F8940141F2883000F096
:103AF000A6F801200549086010BD0000000C014037
:103B0000EC16002094812142008021420400002014
:103B10007FB505460C460121022000F014FDADF8EA
:103B20000850ADF804400020ADF80A00ADF80600DA
:103B300001A9204800F032FE012211461D4801F083
:103B4000A4F91D208DF8000000208DF8010003204D
:103B50008DF8020001208DF80300684600F061F93D
:103B60000121144801F076F97FBD10B501211148FB
:103B700001F039FCE0B110480068401C0E490860B3
:103B80000E48006832300968884202DC00200C4987
:103B9000086009480068B0F5FA6F05DB00200649A7
:103BA00008600120064908600121024801F02CFC50
:103BB00010BD000000040040100000201400002090
:103BC000AC81214210B56FF0040000F074F92E486A
:103BD00000682E49B0FBF1F02D49087008460078C6
:103BE00000EB4001C1EBC0104FF6FF7101EAC000CD
:103BF0002849088010BD0146254A12784A434FF0F3
:103C0000E0235A6100229A611A46126942F00102C9
:103C10001A6100BF4FF0E022106900F001021AB1F2
:103C200000F48032002AF5D04FF0E022126922F031
:103C300001024FF0E0231A6100229A6170470146A9
:103C4000144A12884A434FF0E0235A6100229A61D5
:103C50001A46126942F001021A6100BF4FF0E022D9
:103C6000106900F001021AB100F48032002AF5D088
:103C70004FF0E022126922F001024FF0E0231A61B6
:103C800000229A61704700001800002000127A009C
:103C9000F0160020F2160020014600BF704700BF5A
:103CA000494A128802F04002002AF9D0C2B2464BBB
:103CB0001B1D1A80704710B586B00446012144F2DE
:103CC000040000F033FC4FF40070ADF81400032042
:103CD0008DF8160018208DF8170005A93B4800F054
:103CE00069F94FF48060ADF8140004208DF81700D6
:103CF00005A9364800F05EF925208DF80000032064
:103D00008DF801008DF8020001208DF8030068464F
:103D100000F087F801940020ADF80800ADF80A0023
:103D2000ADF80C00ADF810000C20ADF80E0001A9A4
:103D3000254801F0B0FB012240F22551224801F054
:103D400042FC0121204801F032FC06B010BD10B544
:103D500040F225511C4801F01BFD10B31A4801F038
:103D600097FCC4B21A48008800F40040C8B918484B
:103D7000008800F4804060B10A2C03D00020144970
:103D8000088020E01248008840F400401049088074
:103D900019E00D2C06D10E48008840F480400C49F3
:103DA000088010E00A480088C0F30D0009490C544F
:103DB00007480088401C0649088008460088C72834
:103DC00001DD0020088010BD0038014000080140DE
:103DD000F8160020C01B002009488047094800470A
:103DE000FEE7FEE7FEE7FEE7FEE7FEE7FEE7FEE7AB
:103DF000FEE7FEE704480549054A064B7047000008
:103E0000870F000831010008E81C0020E82200208C
:103E1000E81E0020E81E002031490143314A1160AC
:103E2000704770B5002100230F22C47804B32D4CD5
:103E3000246804F4E064C4F5E064210AC1F10403D9
:103E4000CA40447804FA03F18478144021430901FC
:103E5000254C0678A155047804F01F050124AC40D8
:103E600005786D11AD0005F1E025C5F8004109E0C8
:103E7000047804F01F050124AC401C4D067876112F
:103E800045F8264070BD1A4A0A400243154B1B1FD5
:103E90001A60704739B1134A121D12680243114B60
:103EA0001B1D1A6006E00F4A121D126882430D4B5B
:103EB0001B1D1A607047042808D14FF0E0210969E2
:103EC00041F004014FF0E022116107E04FF0E021E2
:103ED000096921F004014FF0E022116170470000F0
:103EE0000000FA050CED00E000E400E080E100E0F5
:103EF00080FFFF1F10B50446CC48844208D1012141
:103F0000042000F02DFB0021042000F029FB46E0F6
:103F1000C748844208D10121082000F021FB00217C
:103F2000082000F01DFB3AE0C248844208D101217C
:103F3000102000F015FB0021102000F011FB2EE0F6
:103F4000BD48844208D10121202000F009FB002156
:103F5000202000F005FB22E0B848844208D101216E
:103F6000402000F0FDFA0021402000F0F9FA16E0B0
:103F7000B348844208D10121802000F0F1FA0021E9
:103F8000802000F0EDFA0AE0AE48844207D101211A
:103F9000801500F0E5FA0021A01500F0E1FA10BD4F
:103FA00010B50121084600F0DBFA0021012000F0E5
:103FB000D7FA10BD2DE9F041024600250026002069
:103FC00000230024002791F803C00CF00F0591F89E
:103FD00003C00CF0100CBCF1000F03D091F802C02C
:103FE0004CEA050591F800C0BCF1000F31D014680F
:103FF00000202BE04FF0010C0CFA00F3B1F800C0E8
:104000000CEA03069E4220D183004FF00F0C0CFAFD
:1040100003F7BC4305FA03FC4CEA040491F803C01F
:10402000BCF1280F06D14FF0010C0CFA00FCC2F8CD
:1040300014C00AE091F803C0BCF1480F05D14FF05D
:10404000010C0CFA00FCC2F810C0401C0828D1D3A7
:104050001460B1F800C0BCF1FF0F34DD54680020DB
:104060002EE000F1080C4FF0010808FA0CF3B1F84B
:1040700000C00CEA03069E4221D183004FF00F0CD2
:104080000CFA03F7BC4305FA03FC4CEA040491F86C
:1040900003C0BCF1280F05D100F1080C08FA0CF898
:1040A000C2F8148091F803C0BCF1480F07D100F1A9
:1040B000080C4FF0010808FA0CF8C2F81080401CF8
:1040C0000828CED35460BDE8F0814FF6FF7101801F
:1040D000022181700421C17070470246002093685C
:1040E0000B400BB1012000E00020704701468868BA
:1040F00080B2704702460020D3680B400BB101200C
:1041000000E0002070470146C86880B27047016136
:104110007047416170470AB1016100E04161704739
:10412000C16070474FF480320A43826181618261CD
:1041300082698269704702460020434B18684FF637
:104140008073184040EA021008433F4B18607047E4
:104150003E49C8617047F0B50A460023002400219B
:10416000002500F00046B6F1004F02D1364EF1694D
:1041700001E0354E7168C0F3034583B200F4401688
:10418000B6F5401F08D121F070612F4E766826F0F9
:1041900070662D4F7E6012E000F48016B6F5801F29
:1041A00006D1032606FA05F4A14341F0706106E04A
:1041B000460D360103FA06F6B14341F0706122B1B3
:1041C000460D360103FA06F6314300F00046B6F11B
:1041D000004F02D11C4EF16101E01B4E7160F0BD39
:1041E00030B500228B071C0F0F2303FA04F2164B85
:1041F00008338C1053F824309343134C08348D103B
:1042000044F8253023468C1053F824308C07240FB3
:1042100000FA04F423430C4C08348D1044F8253084
:1042200030BD0A49DC3108607047000000080140D9
:10423000000C014000100140001401400018014032
:10424000001C01400020014000000140000020420D
:10425000DF48006840F00100DD490860084640681A
:10426000DC490840DA49486008460068DA490840F5
:10427000D74908600846006820F480200860084696
:10428000406820F4FE0048604FF41F0088607047CB
:10429000CF49096821F48031CD4A1160114609687F
:1042A00021F480211160B0F5803F03D0B0F5802F5C
:1042B0000ED106E0C649096841F48031C44A116054
:1042C00007E0C349096841F4A021C14A116000E038
:1042D00000BF00BF704710B5014600220023002038
:1042E0004A11012A02D1BA4C236806E0022A02D1FF
:1042F000B74C236A01E0B64C636A01F01F02012447
:1043000094401C400CB1012000E0002010BD38B5E5
:10431000002000900024002500BF3120FFF7DBFFC4
:1043200005460098401C00900098B0F5A06F01D0A1
:10433000002DF2D03120FFF7CEFF08B1012400E0BC
:104340000024204638BD01460020A14A106820F014
:10435000F80040EAC10010607047A049086070474B
:10436000024600209A4B586820F47C1042EA010370
:104370001843974B58607047984908667047014644
:104380000020934A506820F00300084350607047B3
:104390008F48406800F00C007047014600208C4AAE
:1043A000506820F0F000084350607047014600203C
:1043B000874A506820F4E060084350607047014627
:1043C0000020834A506820F4605040EAC1005060E9
:1043D000704729B17E4A527A02437D4B5A7204E0FB
:1043E0007B4A527A82437A4B5A7270477B49D83162
:1043F0000860704701460020754A506820F440402C
:104400000843506070470021714A20321170704A91
:1044100082F82010012802D004280AD104E00121EA
:104420006B4A2032117005E00521694A2032117073
:1044300000E000BF00BF70476949086070476449E9
:10444000096A0143624A116270476549443908604C
:10445000704730B500210022002400235C4D6D68B8
:1044600005F00C0121B1042905D0082923D105E06C
:104470005C4D056022E05B4D05601FE0544D6D68AA
:1044800005F47012524D6D6805F48034022505EB79
:1044900092421CB9544D554305600BE04C4D6D687C
:1044A00005F400351DB1504D5543056002E04D4DFA
:1044B0005543056002E04B4D056000BF00BF444D11
:1044C0006D6805F0F0010909484D6B5C0568DD4039
:1044D00045603F4D6D6805F4E061090A434D6B5C32
:1044E0004568DD4085603A4D6D6805F46051C90A44
:1044F0003E4D6B5C4568DD40C560354D6D6805F42B
:104500004041890B3A4D6B5CC568B5FBF3F505611D
:1045100030BD29B12E4A526902432D4B5A6104E045
:104520002B4A526982432A4B5A61704729B1284A63
:1045300092690243264B9A6104E0254A92698243BC
:10454000234B9A61704729B1214AD2690243204B1B
:10455000DA6104E01E4AD26982431D4BDA6170477A
:1045600029B11B4AD2680243194BDA6004E0184AA9
:10457000D2688243164BDA60704729B1144A126937
:104580000243134B1A6104E0114A12698243104B33
:104590001A61704712494039086070470F49C86472
:1045A00070470B49C87170470948406A40F08070F5
:1045B00007494862704701460020054A92680A4050
:1045C0000AB1012000E0002070470149887270475D
:1045D000001002400000FFF8FFFFF6FE000042421C
:1045E0008004424200127A0000093D00FA160020C1
:1045F0000A17002010B50446FE48844208D1012164
:10460000C014FFF7ADFF0021E014FFF7A9FFC4E0DD
:10461000B4F1804F08D101210846FFF7AEFF002119
:104620000120FFF7AAFFB8E0F348844208D1012136
:104630000220FFF7A2FF00210220FFF79EFFACE05F
:10464000EE48844208D101210420FFF796FF0021A3
:104650000420FFF792FFA0E0E948844208D101213D
:104660000820FFF78AFF00210820FFF786FF94E06B
:10467000E448844208D101211020FFF77EFF002189
:104680001020FFF77AFF88E0DF48844208D101213B
:104690002020FFF772FF00212020FFF76EFF7CE053
:1046A000DA48844208D101214014FFF759FF002164
:1046B0006014FFF755FF70E0D548844209D101210D
:1046C000C804FFF74DFF00214FF40020FFF748FF1B
:1046D00063E0D048844209D101210805FFF740FF7B
:1046E00000214FF48010FFF73BFF56E0CA48844298
:1046F00009D101214805FFF733FF00214FF40010D5
:10470000FFF72EFF49E0C548844208D1012140202F
:10471000FFF733FF00214020FFF72FFF3DE0C048A7
:10472000844208D101218020FFF727FF002180204B
:10473000FFF723FF31E0BB48844208D101218015F7
:10474000FFF71BFF0021A015FFF717FF25E0B64874
:10475000844209D101210804FFF702FF00214FF430
:104760008030FFF7FDFE18E0B048844209D10121F6
:104770004804FFF7F5FE00214FF40030FFF7F0FE8C
:104780000BE0AB48844208D101218804FFF7E8FE22
:1047900000214FF48020FFF7E3FE10BD00220288C5
:1047A000944B98420ED0994B98420BD0B0F1804F69
:1047B00008D0914B984205D0904B984202D0904B34
:1047C000984204D14FF68F731A404B881A438D4B91
:1047D000984207D08C4B984204D04FF6FF431A40C2
:1047E000CB881A4302808B8883850B880385814B95
:1047F00098420BD0854B984208D08B4B984205D0FD
:104800008A4B984202D08A4B984201D10B7A038698
:1048100001238382704770B5002400220023058C99
:104820004FF6FE7635400584028C8388048B4FF664
:104830008F752C40B51E2C400D882C43751E2A40C8
:104840000D892A434D882A436A4DA8420BD06F4DEB
:10485000A84208D0744DA84205D0744DA84202D099
:10486000734DA84213D14FF6F7752A404D892A435C
:104870004FF6FB752A408D882A434FF6FF652B4083
:104880004FF6FF552B408D892B43CD892B438380D9
:104890000483CD888586028470BD70B50024002213
:1048A0000023058C4FF6EF7635400584028C838813
:1048B000048B48F6FF752C404FF6FF452C400D88C1
:1048C0004FF6FF7606EA05252C434FF6DF752A40A2
:1048D0000D8906EA05152A434D8806EA05152A437F
:1048E000444DA84202D0494DA8421DD14FF67F75D4
:1048F0002A404D894FF6FF7606EA05152A434FF602
:10490000BF752A408D8806EA05152A434FF6FF3504
:104910002B404FF2FF752B408D8906EA85052B430E
:10492000CD8906EA85052B4383800483CD880587DE
:10493000028470BD70B5002400220023058C4FF660
:10494000FF6635400584028C8388848B4FF68F7513
:104950002C404FF6FC752C400D882C434FF6FF552C
:104960002A400D894FF6FF7606EA05252A434D8831
:1049700006EA05252A431F4DA84202D0234DA8422E
:104980001DD14FF2FF752A404D894FF6FF7606EA9A
:1049900005252A434FF6FF352A408D8806EA05256E
:1049A0002A434EF6FF752B404DF6FF752B408D893F
:1049B00006EA05152B43CD8906EA05152B438380AE
:1049C0008483CD888587028470BD70B50022002362
:1049D0000024058C4EF6FF7635400584038C8488D0
:1049E000828B48F6FF752A404FF6FF452A400D8816
:1049F00020E00000002C01400004004000080040BE
:104A0000000C004000100040001400400034014041
:104A1000004C01400050014000540140001800408B
:104A2000001C0040002000400040014000440140C4
:104A3000004801404FF6FF7606EA05252A434DF669
:104A4000FF752B400D8906EA05352B434D8806EA94
:104A500005352B43FA4DA84202D0FA4DA84208D1A1
:104A60004BF6FF752C408D894FF6FF7606EA8515CB
:104A70002C4384808283CD88A0F84050038470BD8D
:104A8000828B4FF2FF331A408283828B4FF6FF7383
:104A900003EA01231A4382837047F0B50C4615469A
:104AA000002200210026078C4EF6FF7C07EA0C0747
:104AB0000784828B018C4FF6FF7707EA043640F6B5
:104AC000FF473A404FF6FF7707EA05273A434FF68C
:104AD000FF7707EA03373A43D94FB8420ED0D94F90
:104AE000B8420BD0B0F1804F08D0D74FB84205D0B4
:104AF000D64FB84202D0D64FB84206D14DF6FF7716
:104B0000394046F48057394305E047F6FF573940AE
:104B100044F48057394382830184F0BD828B4FF681
:104B2000F3731A408283828B0A4382837047F0B505
:104B30000C461546002200210026078C4FF6FF6C1C
:104B400007EA0C070784828B018C4FF6FF7707EA90
:104B500004264FF60C773A404FF6FF7707EA031723
:104B60002F433A43B64FB8420ED0B64FB8420BD09F
:104B7000B0F1804F08D0B44FB84205D0B34FB8421F
:104B800002D0B34FB84206D14FF6FF57394046F432
:104B90008077394305E04FF2FF57394044F480777E
:104BA000394382830184F0BD028B4FF2FF331A40F8
:104BB0000283028B4FF6FF7303EA01231A43028339
:104BC0007047F0B50C461546002200210026078CE0
:104BD0004FF6EF7C07EA0C070784028B018C4FF637
:104BE000FF7707EA041640F6FF473A404FF6FF7793
:104BF00007EA03373A434FF6FF7707EA05273A43B8
:104C00008F4FB8420ED08F4FB8420BD0B0F1804FCB
:104C100008D08D4FB84205D08C4FB84202D08C4F8F
:104C2000B84206D14FF6DF77394046F010073943D6
:104C300005E04FF65F77394044F0100739430283AF
:104C40000184F0BD028B4FF6F3731A400283028B8E
:104C50000A4302837047F0B50C4615460022002136
:104C6000068C4FF6FE773E400684028B018C4FF691
:104C70000C7632407E1C06EA03162E433243704EF9
:104C8000B0420ED06F4EB0420BD0B0F1804F08D082
:104C90006D4EB04205D06D4EB04202D06C4EB04267
:104CA00006D14FF6FD76314044F00106314305E070
:104CB0004FF6F576314044F001063143028301841A
:104CC000F0BD70B505460C465D4885420ED05D4886
:104CD00085420BD0B5F1804F08D05B48854205D0A6
:104CE0005A48854202D05A48854200D100E000BFB0
:104CF000208850B92389A28861882846FFF7ABFF36
:104D0000E1882846FFF79EFF25E0208804280AD185
:104D10002389A28861882846FFF753FFE188284647
:104D2000FFF742FF17E0208808280AD12389A288CC
:104D300061882846FFF7FBFEE1882846FFF7EEFE74
:104D400009E02389A28861882846FFF7A6FEE1884A
:104D50002846FFF795FE70BD2DE9F04105460C464B
:104D600000260127608808B9022600E00026A088F6
:104D7000012801D1022700E001272088A0B923895A
:104D8000A28861882846FFF766FFE1882846FFF77A
:104D900059FF23893A4631462846FFF712FFE1883A
:104DA0002846FFF701FF13E02389A288618828467F
:104DB000FFF707FFE1882846FFF7F6FE23893A460A
:104DC00031462846FFF747FFE1882846FFF73AFFBC
:104DD000BDE8F0810A884B881A438B881A43CB8838
:104DE0001A430B891A434B891A438B891A43A0F83B
:104DF000442070474FF6FF71818000210180C180FF
:104E00004180017270470021018041808180C18012
:104E1000018141818181C1817047002101804180F0
:104E2000012181800021C180018170470021018022
:104E300041808180C1800181418181817047000072
:104E4000002C0140003401400004004000080040F4
:104E5000000C004021B1028842F00102028004E00F
:104E600002884FF6FE731A400280704731B1B0F8E5
:104E7000442042F40042A0F8442005E0B0F8442069
:104E8000C2F30E02A0F8442070471AB183890B4385
:104E9000838102E083898B438381704781827047DD
:104EA00041EA0203A0F8483070471AB183890B43E6
:104EB000838102E083898B438381704701894FF6A8
:104EC000F8721140018170470A46002101894FF6AE
:104ED0008F73194011430181704730B504460D4668
:104EE00029462046FFF7F0FF208940F00700208187
:104EF00030BD2DE9F04104460D4616461F46602D93
:104F000006D13B46012231462046FFF75AFE05E016
:104F10003B46012231462046FFF79DFE29462046AA
:104F2000FFF7D2FF208940F007002081BDE8F08123
:104F300030B50C4600210189C9B24FF6FF7505EA6C
:104F40000325154325432943018130BD2DE9F04157
:104F500005460E4617469846002443463A463146D3
:104F60002846FFF7E5FF2C894FF6F870044044F01F
:104F700007044FF68F70044044F070042C81BDE8A4
:104F8000F081F0B504460D4616461F463B463246B4
:104F900029462046FFF7CCFF208940F4804020813D
:104FA000F0BD0185828270470A46002101884FF6D4
:104FB0008F731940114301807047F0B50C461546B8
:104FC0001E460021002200230189028B038C4FF62C
:104FD000F877394021434FF6FC473A4040F2011739
:104FE0003A434FF6DD773B404FF6FF7707EA061767
:104FF0002F433B43018102830384F0BD0A46002115
:10500000018B4FF68F7319401143018370470A4695
:105010000021018B48F6FF7319404FF6FF7303EA36
:1050200002231943018370470A460021818B4FF602
:105030008F7319401143818370470A460021818B89
:1050400048F6FF7319404FF6FF7303EA0223194332
:105050008183704721B1028842F08002028004E01F
:1050600002884FF67F731A400280704721B1828810
:1050700042F00402828004E082884FF6FB731A40FB
:105080008280704721B1828842F00802828004E069
:1050900082884FF6F7731A408280704721B1828868
:1050A00042F00102828004E082884FF6FE731A40CB
:1050B000828070470A460021018B4FF6F773194032
:1050C0001143018370470A460021018B4FF2FF73A1
:1050D00019404FF6FF7303EA022319430183704717
:1050E0000A460021818B4FF6F773194011438183E3
:1050F00070470A460021818B4FF2FF7319404FF62B
:10510000FF7303EA02231943818370470A46002193
:10511000018B4FF6FB7319401143018370470A4618
:105120000021018B4FF6FF3319404FF6FF7303EA5E
:1051300002231943018370470A460021818B4FF6F1
:10514000FB7319401143818370470A460021818B0C
:105150004FF6FF3319404FF6FF7303EA022319435A
:10516000818370470A460021018B4FF67F731940F7
:105170001143018370470A460021018BC1F30E01E0
:105180004FF6FF7303EA02231943018370470A466F
:105190000021818B4FF67F73194011438183704743
:1051A0000A460021818BC1F30E014FF6FF7303EA1B
:1051B00002231943818370470A460021018C4FF670
:1051C000FD7319401143018470470A460021018C88
:1051D0004FF6F77319401143018470470A460021C6
:1051E000018C4FF6DF7319404FF6FF7303EA021389
:1051F0001943018470470A460021018C4FF67F73E2
:1052000019404FF6FF7303EA0213194301847047F4
:105210000A460021018C4FF6FF5319404FF6FF73E9
:1052200003EA02231943018470470A460021018CD6
:105230004FF2FF7319404FF6FF7303EA022319433D
:10524000018470470A460021018C4DF6FF73194016
:105250004FF6FF7303EA023319430184704730B5F8
:10526000002301248C40A3B2048C9C430484048C4E
:1052700002FA01F5ADB22C43048430BD30B50023F1
:1052800004248C40A3B2048C9C430484048C02FA52
:1052900001F5ADB22C43048430BD70B50346002047
:1052A00000241846183001258D40ACB21D8CA54352
:1052B0001D8409B1082909D100EB6100056825F0BA
:1052C000700505600568154305600EE00D1FC5F308
:1052D0004E052844056825F4E045056005684FF64D
:1052E000FF7606EA02263543056070BD21B10288CB
:1052F00042F00202028004E002884FF6FD731A4079
:105300000280704721B1028842F00402028004E06A
:1053100002884FF6FB731A400280704721B18288E1
:1053200042F08002828004E082884FF67F731A4048
:105330008280704702884FF6F7731A400280028815
:105340000A430280704782884FF68F731A4082802A
:1053500082880A438280704702894FF6F8731A40A8
:10536000028102890A430281704702894FF67F73E6
:105370001A40028102890A43028170478184704782
:1053800081857047818670470187704781877047A4
:10539000A0F84010704702884FF6FF431A40028081
:1053A00002880A43028070470146888E7047014692
:1053B000088F70470146888F70470146B1F840005A
:1053C00070470146888C70470146088D7047024639
:1053D0000020138A0B400BB1012000E00020704731
:1053E000CA430282704730B50246002000230024E1
:1053F000158A05EA0103958905EA010413B10CB188
:10540000012000E0002030BDCA4302827047000046
:1054100010B50446FB48844209D101218803FFF7F7
:105420009FF800214FF48040FFF79AF832E0F648E9
:10543000844209D101214804FFF79FF800214FF46D
:105440000030FFF79AF825E0F048844209D10121A5
:105450008804FFF792F800214FF48020FFF78DF8C1
:1054600018E0EB48844209D10121C804FFF785F810
:1054700000214FF40020FFF780F80BE0E54884425C
:1054800008D101210805FFF778F800214FF48010BA
:10549000FFF773F810BD2DE9F04786B005460E46BC
:1054A0000024A24600BFA1460027B08900B100BF7A
:1054B0002F462C8A4CF6FF700440F08804432C825F
:1054C000AC894EF6F3100440B088318908437189E5
:1054D00008430443AC81AC8A4FF6FF400440B089D6
:1054E0000443AC8201A8FEF7B4FFC648874202D14C
:1054F000DDF810A001E0DDF80CA0A88900F4004060
:1055000040B10AEBCA0000EB0A1031684900B0FB59
:10551000F1F807E00AEBCA0000EB0A1031688900D5
:10552000B0FBF1F86420B8FBF0F00401200964211D
:1055300001FB1089A88900F4004040B1322000EB43
:10554000C900B0FBF1F000F00700044308E032208E
:1055500000EB09106421B0FBF1F000F00F000443F0
:105560002C8106B0BDE8F0874FF416510160002190
:105570008180C18001810C2141810021818170479E
:1055800010B502460020108A4FF2FF0318400B8826
:105590004C8823438C882343CC88234318431082B0
:1055A00010BD0021018041808180C180704721B100
:1055B000828942F40052828104E082894DF6FF73B1
:1055C0001A4082817047F0B503460024002600256A
:1055D000002040F66A17B94200D100BF1846C1F357
:1055E000421401F01F06012707FA06F5012C01D12C
:1055F0000C3004E0022C01D1103000E014301AB15C
:1056000007682F43076002E00768AF430760F0BDFB
:105610001AB1838A0B43838202E0838A8B4383829D
:105620007047028A4FF6F0731A400282028A0A43D8
:105630000282704782894FF2FF731A408281828909
:105640000A438281704721B1828942F0020282813D
:1056500004E082894FF6FD731A4082817047028A06
:105660004FF6DF731A400282028A0A4302827047B1
:1056700021B1028A42F48042028204E0028A4BF69F
:10568000FF731A4002827047C1F30802828070479C
:1056900001468888C0F308007047818941F0010104
:1056A00081817047028BD2B20283028B42EA0122CF
:1056B00002837047028B02F47F420283028B0A430B
:1056C0000283704721B1828A42F02002828204E084
:1056D000828A4FF6DF731A408282704721B1828A34
:1056E00042F01002828204E0828A4FF6EF731A4081
:1056F0008282704721B1828A42F00802828204E0ED
:10570000828A4FF6F7731A408282704721B18289EC
:1057100042F40042828103E08289C2F30E02828158
:10572000704721B1828A42F40062828204E0828A58
:105730004FF2FF731A4082827047828A4FF6FB73E2
:105740001A408282828A0A438282704721B1828A09
:1057500042F00202828204E0828A4FF6FD731A4010
:105760008282704702460020B1F5007F00D100BF61
:1057700013880B400BB1012000E00020704701F4BA
:105780000072B2F5007F00D100BFCA4302807047AB
:1057900070B50246002400230025002040F66A165A
:1057A000B14200D100BFC1F3421501F01F03012631
:1057B00006FA03F3012D02D19689334006E0022D4B
:1057C00002D1168A334001E0968A33400C1201263A
:1057D00006FA04F41688344013B10CB1012000E03D
:1057E000002070BD10B50022002340F66A14A142CB
:1057F00000D100BF0A1201249440A3B2DC4304800C
:1058000010BD000000380140004400400048004046
:10581000004C00400050004010B50446BE48844291
:1058200008D101218014FEF79BFE0021A014FEF791
:1058300097FE16E0B948844208D101210014FEF712
:105840009CFE00212014FEF798FE0AE0B448844232
:1058500007D10121C013FEF790FE0021E013FEF7EF
:105860008CFE10BD10B50022028802F441520B8854
:105870004C8823438C882343CC8823430C892343BF
:105880004C8923438C892343CC8923431A430280C8
:10589000838B4FF2FF74234083830B8A038210BDF6
:1058A0002DE9F04F85B005460C464FF00009022760
:1058B0004FF000084FF0010B0026B246A88B4FF2C4
:1058C00040010840A88302202884B5F81C90A068F5
:1058D000022801D100BF38E0A08810B94FF0010BB9
:1058E00001E04FF0020B8D48854200D100E000BF7F
:1058F0006846FEF7AEFDDDF800A0E088B0F5007F59
:105900000AD14FEA1A2000EB80004000A168B0FBEA
:10591000F1F0401D86B20BE04FEA4B10BAFBF0F0FD
:1059200000EB80004000A168B0FBF1F0401D86B2A2
:105930000A20B6FBF0F606F00108A6EB0800C0F35B
:105940004F074FF6FF7000EA0828022F01DBFF2FF8
:1059500002DD02274FF00008E08840EA08003843E3
:105960002884A088A18908436188084321880843C6
:1059700040F4006040EA0909A5F81C9005B0BDE8B4
:10598000F08F0021018041808180C18001814181AF
:105990008181C181072101827047002101804180FE
:1059A0008180C1800221816000218181704721B105
:1059B000028842F04002028004E002884FF6BF7382
:1059C0001A400280704721B1828B42F48062828348
:1059D00004E0828B4FF6FF331A408283704730B564
:1059E000002400230C110125A540ABB21AB1858813
:1059F0001D43858002E085889D43858030BD1AB1B6
:105A000083880B43838002E083888B4383807047C5
:105A1000818170470146888970474FF6FF62914245
:105A200004D0028842F48072028004E002884FF6BB
:105A3000FF631A400280704721B1828842F004025D
:105A4000828004E082884FF6FB731A4082807047A0
:105A500002884FF2FF731A40028002880A430280D4
:105A60007047018841F480510180704721B102885C
:105A700042F40052028004E002884DF6FF731A409F
:105A80000280704702460020012901D0108B00E0FF
:105A9000908A70470146088A7047B1F5804F04D15B
:105AA000028842F48042028004E002884BF6FF73D1
:105AB0001A40028070470246002013890B400BB148
:105AC000012000E000207047CA4302817047F0B512
:105AD0000246002000240023002501F00F070126C4
