:020000040800F2
:1000000060230020FD3E0008B9110008BB11000864
:10001000BF110008C3110008C7110008000000004C
:10002000000000000000000000000000CB110008EC
:10003000CD11000800000000CF110008D111000808
:10004000173F0008173F0008173F0008173F000838
:10005000173F0008173F0008173F0008173F000828
:10006000173F0008173F0008173F0008173F000818
:10007000173F0008173F0008173F0008173F000808
:10008000173F0008173F0008173F0008173F0008F8
:10009000173F0008173F0008173F0008193D0008E8
:1000A000173F0008173F0008173F0008173F0008D8
:1000B000173F0008173F0008173F0008173F0008C8
:1000C000173F0008173F0008173F0008173F0008B8
:1000D000173F0008173F0008173F0008173F0008A8
:1000E000393D0008173F0008173F0008173F000878
:1000F000173F0008173F0008173F0008173F000888
:10010000173F0008173F0008173F0008173F000877
:10011000173F0008173F0008173F0008173F000867
:10012000173F0008173F0008173F0008173F000857
:1001300000F002F800F06AF80AA090E8000C82448F
:100140008344AAF10107DA4501D100F05FF8AFF26C
:10015000090EBAE80F0013F0010F18BFFB1A43F0A5
:100160000103184738800000588000000A444FF00F
:10017000000C10F8013B13F0070408BF10F8014B06
:100180001D1108BF10F8015B641E05D010F8016B4B
:10019000641E01F8016BF9D113F0080F1EBF10F8AF
:1001A000014BAD1C0C1B09D16D1E58BF01F801CBD2
:1001B000FAD505E014F8016B01F8016B6D1EF9D555
:1001C0009142D6D37047000000230024002500266A
:1001D000103A28BF78C1FBD8520728BF30C148BFAA
:1001E0000B607047782905F01584732905F0E685C2
:1001F000002070471FB59DE8030006F009F905F0DF
:100200000FFE1FBD10B505F074FE10BD05F0D7FE42
:100210001146FFF7EFFF00F009F806F0C7F803B446
:10022000FFF7F0FF03BC06F085FA000008B50020D8
:10023000FE49086003F0F8FD03F0DCFA03F0C2FCAD
:1002400003F020FD02F0E2FE03F070FB02F0D9FDA6
:1002500003F08AFD00F091BFB42003F0CEFDF44816
:100260000068012801D101F0A5F80020F0490860DC
:100270001023F0A20A21084603F044F91023F0A24B
:100280001A210A2003F03EF91023F0A22B210A20A4
:1002900003F038F902F0A5FF01F01CFCEF480068FC
:1002A0000128D7D102F0C0FF0020EC4908600120EE
:1002B000EB4908600020EB490860EB4908609BE1CE
:1002C0001023EAA20A21084603F01CF91023EAA22F
:1002D0001A210A2003F016F91023EAA22B210A2082
:1002E00003F010F902F07DFFDC480068012816D108
:1002F000CE490860642003F0D4FD0020E449C1F831
:10030000940102F091FF0020D4490860D4490860AC
:100310000120D44908600020D349086071E1CF482A
:1003200000680228CBD102F07FFF0120BF4908609E
:10033000642003F0B6FD0020D549C1F89401C749F7
:10034000086054E11023D3A20A21084603F0DAF82A
:100350001023D4A21A210A2003F0D4F802F041FF9E
:1003600022E00020D249086003F004FBD149086074
:1003700008460068002812DB0846006809280EDCE1
:1003800008460068CC490860102001230090084608
:1003900028210268084603F0E1F802F022FFC6486F
:1003A0000068C82800D000E0DBE700BF22E064203E
:1003B00003F077FD03F0DEFABE49086008460068E6
:1003C000002812DB0846006809280EDC0846006891
:1003D000BA490860102001230090084628210268CD
:1003E000322003F0BBF802F0FCFEB4480068C828D5
:1003F00000D000E0DBE700BF22E0642003F051FD05
:1004000003F0B8FAAB49086008460068002812DB20
:100410000846006809280EDC08460068A8490860FC
:100420001020012300900846282102683C2003F098
:1004300095F802F0D6FEA2480068C82800D000E077
:10044000DBE700BF25E0642003F02BFD03F092FA08
:100450009849086008460068002815DB08460068CF
:10046000092811DC0846006896490860102001231D
:100470000090084628210268462003F06FF802F039
:10048000B0FE0120904908608E480068C82800D05E
:1004900000E0D8E700BFA8E0874800684FF47A7111
:1004A00048438649096801EBC10202EB011100EBE8
:1004B00081008349096801EB810100EB410081491A
:1004C000096808447A490860084600687F49096855
:1004D000884240D1012055490860642003F0E1FCC6
:1004E00000206B49C1F89401642003F0DAFC01207C
:1004F0004E490860642003F0D4FC00206449C1F830
:1005000094015A2003F079FC02F08EFE102370A2B1
:100510000A21084602F0F6FF102370A21A210A20D1
:1005200002F0F0FF02F05DFE40F6B83003F0B9FCD7
:1005300002F07AFE00204A4908604A4908604A49A8
:100540000860C8205C4908605C4908605C49086034
:100550005C4908604AE0564800685C49096888427E
:1005600043D00120314908604FF4FA7003F099FC40
:1005700000204749C1F89401642003F092FC012057
:100580002A4908604FF4FA7003F08BFC00204049C0
:10059000C1F89401642003F084FC01202349086021
:1005A0004FF4FA7003F07DFC00203949C1F8940142
:1005B00002F03AFE10234CA20A21084602F0A2FFE4
:1005C00002F00FFE40F6B83003F06BFC02F02CFE98
:1005D000002023490860C82037490860374908606F
:1005E000374908603749086000E055E700BF1C48FC
:1005F000006800287FF4A6AE1948006800287FF440
:100600005FAE00BF05E1102339A20A21084602F0BF
:1006100079FF102339A21A210A2002F073FF102358
:1006200018A22B210A2002F06DFF6DE09481214277
:100630002817002020202057454C434F4D450000EF
:100640002020204E4643204F4E000000205072656F
:10065000737320627574746F6E00000000000020D8
:10066000180000201C000020200000205573652089
:100670003E434F444500000020202020204E4643AA
:1006800000000000202020202041646D696E0000E1
:10069000008021422020456E7465722020746865B8
:1006A0000000000020202050617373576F726400B7
:1006B000340000203C0000204000002044000020C6
:1006C000480000204C0000200400002050000020C2
:1006D0002020535543434553532100006F70656EEE
:1006E000656420646F6F72004552524F52210000C2
:1006F0005573652020434F444500000020202020F2
:100700003E4E46430000000002F06BFDFD480068CD
:10071000022864D10120FC490860642003F0C1FB79
:100720000020FA49C1F8940102F07EFD0020F5494D
:1007300008604FE001F0CEF91023F5A21A210A203B
:1007400002F0E0FE02F04DFDEE480068022803D101
:100750000020EC49086041E0F0480078012813D0FF
:10076000EF48007801280FD0EE48007801280BD020
:10077000ED480078012807D0EC480078012803D024
:10078000EB480078012825D102F04EFD1023AFF28E
:10079000C0020A21084602F0B5FE1023E5A21A2184
:1007A0000A2002F0AFFE02F01CFD5A2003F025FBE8
:1007B0004FF47A7003F075FB0020D8490870D849CF
:1007C0000870D8490870D8490870D8490870D849C5
:1007D000087003E0DB4800680028ABD100BFC948BF
:1007E0000068012815D1C8490860642003F059FB4E
:1007F0000020C649C1F8940102F016FD0020C1494D
:100800000860D1490860CF4908600120CF490860DD
:1008100004E0CC48006800287FF4F5AE00BFC7E3D1
:100820001023AFF234120A21084602F06BFE1023A7
:10083000AFF2BC121A210A2002F064FE1023C4A2F7
:100840002B210A2002F05EFE02F0CBFCAD480068CE
:10085000012815D1AC490860642003F022FB002078
:10086000AA49C1F8940102F0DFFC0020A549086004
:100870000120B54908600020B2490860B34908600A
:10088000A04800680228CAD10120B44908609E49E6
:100890000860642003F005FB00209C49C1F8940126
:1008A00002F0C2FC002097490860FDE31023AFF27C
:1008B0001C220A21084602F025FE1023AFF21C225A
:1008C0001A210A2002F01EFE02F08BFC22E000201A
:1008D000A349086003F04EF8A24908600846006882
:1008E000002812DB0846006809280EDC084600686C
:1008F0009D49086010200123009008462D210268C0
:10090000282002F02BFE02F06CFC97480068C828F3
:1009100000D000E0DBE700BF22E0642003F0C1FA72
:1009200003F028F88F49086008460068002812DBA9
:100930000846006809280EDC084600688B490860F4
:1009400010200123009008462D210268322002F079
:1009500005FE02F046FC85480068C82800D000E08B
:10096000DBE700BF22E0642003F09BFA03F002F80B
:100970007C49086008460068002812DB08460068C9
:1009800009280EDC08460068794908601020012318
:10099000009008462D2102683C2002F0DFFD02F0A5
:1009A00020FC73480068C82800D000E0DBE700BFE7
:1009B0002FE0642003F075FA02F0DCFF694908605B
:1009C00008460068002812DB0846006809280EDC8B
:1009D0000846006867490860102001230090084617
:1009E0002D210268462002F0B9FD02F0FAFB012039
:1009F0006149086000205949086001205F4908608A
:100A00005F4908605F4908605A480068C82800D0FC
:100A100000E0CEE700BFA4E3534800684FF47A71CA
:100A200048435249096801EBC10202EB011100EB96
:100A300081004F49096801EB810100EB41004D49FC
:100A40000968084446490860084600684E49096834
:100A5000884256D102F0E8FB01202B49086064204F
:100A600003F01FFA00202949C1F89401642003F023
:100A700018FA012024490860642003F012FA0020CB
:100A80002149086001203049086000202D49086094
:100A90002E4908601B490860FFE277E119480068A9
:100AA000012815D118490860642003F0FAF90020E4
:100AB0001649C1F8940124490860012021490860C1
:100AC0000020224908600F49086002F0ADFB62E196
:100AD00010232EA20A21084602F014FD10232EA294
:100AE0001A210A2002F00EFD10232FA22B210A202A
:100AF00002F008FD02F075FB024800680228CCD124
:100B000058E0E6E20000002094812142008021426A
:100B100020202020204E4643202000006E00002090
:100B20006F00002070000020710000207200002083
:100B300073000020206F70656E646520646F6F72B3
:100B4000000000001C0000201800002020000020F1
:100B5000202020203E41646D696E000024000020AA
:100B6000340000203C000020400000204400002011
:100B7000480000204C000020300000202800002009
:100B80002C0000200C000020500000203E52657315
:100B9000657420436F646500204164642F4D6F7657
:100BA00065204E4643000000202020205155495426
:100BB0002000000002F038FBC820FE490860FE4912
:100BC0000860FE490860FE490860DAE01023FDA2D3
:100BD0000A21084602F096FC02F003FB22E0002006
:100BE000FB49086002F0C6FEFA4908600846006842
:100BF000002812DB0846006809280EDC0846006859
:100C0000EC49086010200123009008462821026862
:100C1000084602F0A3FC02F0E4FAE6480068C8289F
:100C200000D000E0DBE700BF22E0642003F039F9E8
:100C300002F0A0FEE749086008460068002812DBC1
:100C40000846006809280EDC08460068DA49086092
:100C5000102001230090084628210268322002F06B
:100C60007DFC02F0BEFAD4480068C82800D000E03D
:100C7000DBE700BF22E0642003F013F902F07AFE04
:100C8000D449086008460068002812DB084600685E
:100C900009280EDC08460068C849086010200123B6
:100CA00000900846282102683C2002F057FC02F020
:100CB00098FAC2480068C82800D000E0DBE700BF0F
:100CC00022E0642003F0EDF802F054FEC149086010
:100CD00008460068002812DB0846006809280EDC78
:100CE00008460068B64908601020012300900846B5
:100CF00028210268462002F031FC02F072FAB04866
:100D00000068C82800D000E0DBE700BF37E0A94852
:100D100000684FF47A714843A749096801EBC102A2
:100D200002EB011100EB8100A449096801EB81018C
:100D300000EB4100A24909680844A749086002F095
:100D400073FA1023A5A20A21084602F0DBFB02F089
:100D500048FA40F6B83003F0A4F802F065FA002033
:100D6000A1490860A1490860A1490860A14908603B
:100D7000A1490860A1490860A149086000E0C6E7F0
:100D800000BF9F48006800287FF420AF96480068A5
:100D900000287FF483AE00BFC7E0964800680128B2
:100DA00015D198490860642003F07BF8002096492B
:100DB000C1F894018C4908608C49086001208C4975
:100DC000086000208B49086002F02EFAB2E0102380
:100DD0008EA20A21084602F095FB10238EA21A214A
:100DE0000A2002F08FFB10238FA22B210A2002F091
:100DF00089FB02F0F6F97F48006802287ED10020C6
:100E00007C49086001207849086000207749086023
:100E10000120884908607B490860642003F041F89C
:100E200000207949C1F8940102F0FEF979E03CE034
:100E3000012081490860102380A20A21084602F09F
:100E400061FB10237FA21A210A2002F05BFB02F053
:100E5000C8F96848006801280BD10020654908607E
:100E6000614908606149086001206149086002F039
:100E7000DBF960480068022817D102F0D5F901E0DB
:100E800000F02CFD6C4800680028F9D102F0CCF984
:100E900000206849086057490860534908600120EC
:100EA000524908600020524908604F4800680028F5
:100EB000BED132E0102365A20A21084602F022FBCF
:100EC000102364A21A210A2002F01CFB02F089F907
:100ED0004848006801280CD10020464908600120DC
:100EE000414908600020414908604149086002F01A
:100EF0009BF94048006802280FD100E015E000206F
:100F00003C4908603A4908604A490860012037496D
:100F1000086000F070FA02F087F935480068002890
:100F2000C8D144480068002881D1304800680028B2
:100F30007FF433AF00BFAAE02E480068012815D126
:100F400030490860642002F0ACFF00202E49C1F84F
:100F500094010120244908600020244908602449A4
:100F600008602449086002F05FF995E0102327A289
:100F70000A21084602F0C6FA1023AFF2E4321A2121
:100F80000A2002F0BFFA102334A22B210A2002F01B
:100F9000B9FA02F026F917480068022877D1012033
:100FA00018490860642002F07CFF002016495BE0CD
:100FB000DEE06CE0400000204400002048000020FB
:100FC0004C0000204E455720434F44450000000090
:100FD000340000203C00002050000020434F4445D6
:100FE0002055504441544100180000201C000020AE
:100FF0002000002000000020240000202800002005
:101000002C000020948121420080214220526573EF
:10101000657420636F6465003E4164642F4D6F7694
:1010200065204E46430000002020202020515549D5
:1010300054202000300000200C0000203E41646459
:10104000000000002052656D6F76650020416464E9
:10105000000000003E52656D6F7665003E20202046
:101060002051554954200000C1F8940144490860BA
:1010700002F0DAF800204349086043490860434918
:1010800008603F49086042490860424908603F489B
:10109000006800287FF450AF00BF3E480068002879
:1010A0007FF4FBAC374800E05DE0006888B9364863
:1010B000006870B93548006858B902F0B5F8C82022
:1010C0003549086035490860354908603549086088
:1010D00048E03548006835490968884241D0012018
:1010E000334908604FF4FA7002F0DBFE002031490A
:1010F000C1F89401642002F0D4FE01202C4908605C
:101100004FF4FA7002F0CDFE00202A49C1F8940194
:10111000642002F0C6FE0120254908604FF4FA70F1
:1011200002F0BFFE00202349C1F8940102F07CF8D0
:101130001023AFF64C220A21084602F0E3F902F030
:1011400050F840F6B83002F0ACFE02F06DF8C8205E
:101150001149086011490860114908601149086087
:1011600000E059E400BF0A48006800287FF49EAB05
:101170000648006800287FF453ABFFF76DB8000005
:1011800000000020180000201C000020200000208B
:1011900024000020280000204000002044000020FF
:1011A000480000204C0000203400002050000020A7
:1011B0009481214200802142704700BFFEE700BFBA
:1011C000FEE700BFFEE700BFFEE7704770477047CD
:1011D000704700000CB50020019000906C4800683A
:1011E00040F480306A49086000BF6948006800F434
:1011F000003000900198401C0190009818B90198A7
:10120000B0F5A06FF1D16248006800F4003010B171
:101210000120009001E0002000900098012843D1B7
:101220005C48006840F010005A49086008460068B1
:1012300020F0030008600846006840F002000860E3
:10124000534840685249486008464068486008462C
:10125000406840F4806048600846406820F47C1094
:1012600048600846406840F4E81048600846006856
:1012700040F08070086000BF4548006800F00070D2
:101280000028F9D04248406820F0030040494860F7
:101290000846406840F00200486000BF3C48406893
:1012A00000F00C000828F9D10CBD10B5FFF792FF33
:1012B00010BD10B53648006840F0010034490860A0
:1012C000084640683449084031494860084600688B
:1012D000324908402E4908600846006820F4802002
:1012E00008600846406820F4FE0048604FF41F0084
:1012F0008860FFF7DAFF4FF000602949086010BDF1
:1013000010B5002100200022214B5B6803F00C0186
:1013100021B1042906D0082928D107E0214B224C0D
:10132000236027E01F4B204C236023E0184B5B68B1
:1013300003F47010164B5B6803F48032022303EB56
:10134000904022B9194B4343174C23600DE0104BDA
:101350005B6803F4003323B1144B4343124C236006
:1013600003E0104B4343104C236003E00D4B0E4C45
:10137000236000BF00BF064B5B68C3F303130C4C34
:10138000E15C094B1B68CB40074C236010BD00009B
:1013900000100240002002400000FFF8FFFFF6FEB0
:1013A00008ED00E000127A005400002000093D0022
:1013B0005800002010B5002408E0FB480068401CDD
:1013C000F94908600A2002F06CFD641C642CF4DB0F
:1013D000642408E0F4480068401EF34908600A20CD
:1013E00002F05FFD641E002CF4DC0020EE49086072
:1013F000EE49086010BD10B502F0FCF900240DE0C4
:101400000020EB490855EB490855EB490855EB49D5
:101410000855EB490855EB490855641C042CEFDBD3
:101420000120E9490860642002F03BFD0020E74903
:10143000C1F89401642002F034FD0120E249086003
:10144000642002F02EFD0020DF49086001200860C2
:10145000642002F026FD0020DC49C1F894016420DC
:1014600002F01FFD0120D949C1F89401642002F067
:1014700018FD0020D549C1F8940101F0D5FE1023D4
:10148000D3A21C21072002F03DF801F0AAFE4FF480
:101490007A7002F006FD01F0C7FE1023CCA21C21D9
:1014A000072002F02FF801F09CFE4FF47A7002F052
:1014B000F8FC01F0B9FE1023C5A21C21072002F0A0
:1014C00021F801F08EFE4FF47A7002F0EAFC10BDB4
:1014D0003EB50546002446E0285DC11700EB1171BA
:1014E00009110DF814101DF81400092806DD1DF867
:1014F00014003730C0B20DF8140005E01DF81400D8
:101500003030C0B20DF81400285DC11700EB117126
:101510000911A0EB0111C9B2012202EB44020DF83E
:101520000210012000EB44001DF8000009280CDD2A
:10153000012000EB44001DF800003730C0B201214B
:1015400001EB44010DF801000BE0012000EB440029
:101550001DF800003030C0B2012101EB44010DF84C
:101560000100601CC4B2042CB6DB00208DF808001A
:1015700069469AA004F0F2F93EBD70B50446002514
:1015800020E004F0800020B10121974802F051FED4
:1015900003E00121944802F04EFE142002F05DFCAD
:1015A0000421914802F047FE142002F056FC042169
:1015B0008D4802F03EFE142002F04FFC6006040E3F
:1015C000681CC5B2082DDCDB70BD70B504460D4645
:1015D0007E2000EA44061021834802F02CFE3046AB
:1015E000FFF7CBFF2846FFF7C8FF10217E4802F027
:1015F00020FE70BD70B500251CE06006040E0421BD
:10160000794802F018FE142002F027FC40217648A9
:1016100002F0F5FD012801D144F00104142002F08C
:101620001CFC0421704802F004FE142002F015FC9A
:10163000681CC5B2082DE0DB204670BD70B50446BD
:101640007E2000EA440040F080051021664802F048
:10165000F2FD2846FFF791FFFFF7CCFF0646102169
:10166000614802F0E6FD304670BD70B505460C4697
:101670002846FFF7E3FF064646EA04012846FFF73F
:10168000A4FF70BD70B505460C462846FFF7D6FF8F
:10169000064626EA04012846FFF797FF70BD2DE9AC
:1016A000FE4F0646884691469A46DDF830B0022045
:1016B00002900020019000900C2E06D00E2E09D131
:1016C000122001901020009005E07720019030203A
:1016D000009000E000BF00BF019840F080010220B0
:1016E000FFF773FF80210420FFF7CCFF00210120CA
:1016F000FFF76BFF80210A20FFF7B7FF002505E009
:1017000018F805100920FFF760FF6D1C4D45F7D351
:1017100031460120FFF759FF0C2E03D180210D2007
:10172000FFF7A3FF4FF47A7500BF0420FFF786FF91
:1017300004466D1E35B104F0010018B90098204030
:101740000028F2D080210D20FFF79CFF55B3062022
:10175000FFF774FF00F01B0028BB002002900198E7
:10176000204000F0010008B1012002900C2E48D169
:101770000A20FFF763FF04460C20FFF75FFF00F02D
:1017800007072FB1601E07EBC000CBF8000002E096
:10179000E000CBF8000004B90124122C00DD122473
:1017A000002529E02DE02AE014000020040000209C
:1017B00075000020790000207D00002081000020BD
:1017C0008500002089000020948121420080214270
:1017D00020416C6C2052656D6F76650049443E3E39
:1017E0003E25730D0A000000000801400920FFF7A4
:1017F00025FF0AF805006D1CA542F7D301E0022081
:10180000029080210C20FFF730FF00210120FFF71C
:10181000DCFE0298BDE8FE8FF0B587B005460027D4
:1018200008210846FFF72EFF00210D20FFF7CDFE0F
:1018300080210E20FFF726FF93208DF8080020203E
:101840008DF8090001A802AB022202A900900C2029
:10185000FFF725FF064686B9002407E002A8005DD1
:10186000285502A8005D4740601CC4B2042CF5DB7B
:1018700002A8005DB84200D0022680210E20FFF7AA
:10188000F4FE304607B0F0BD70B588B005460C4692
:1018900008210846FFF7F6FE07210D20FFF795FE09
:1018A00003211420FFF7E1FE8DF80C5002A803ABD2
:1018B000012203A900900C20FFF7F1FE06464EB965
:1018C0000298102806D19DF80C0020709DF80D009C
:1018D000607000E00226304608B070BD10B501F01F
:1018E00089FF1023FDA21C21072001F00BFE01F04F
:1018F00078FCFE495220FFF7C7FFFD4908700846F3
:10190000007800287ED102200870FA48FFF784FF93
:10191000F7490870F748FFF7DBFDF748006806282D
:1019200010D101F081FC1023F4A21C21072001F04A
:10193000E9FD01F056FC4FF47A7002F0B2FA002093
:10194000F1490860EC48006805281CD1002418E023
:10195000E848005DED4908550620E749086001F0B8
:1019600063FC1023EAA21C21072001F0CBFD01F04B
:1019700038FC4FF47A7002F094FA0020E2490860D3
:10198000641C042CE4DBDC48006804281CD100241F
:1019900018E0D848005DE24908550520D64908609E
:1019A00001F042FC1023DFA21C21072001F0AAFD58
:1019B00001F017FC4FF47A7002F073FA0020D2495C
:1019C0000860641C042CE4DBCB48006803281ED1AB
:1019D00000241AE0C748005DD64908550420C649CE
:1019E000086001F021FC1023D3A21C21072001F084
:1019F00089FD01F0F6FB4FF47A7002F052FA0020F4
:101A0000C14900E065E00860641C042CE2DBBA48D0
:101A1000006802281CD1002418E0B648005DCA49BD
:101A200008550320B449086001F0FEFB1023C7A24B
:101A30001C21072001F066FD01F0D3FB4FF47A7002
:101A400002F02FFA0020B0490860641C042CE4DB8B
:101A5000A948006801281CD1002418E0A548005DB1
:101A6000BE4908550220A449086001F0DDFB10239F
:101A7000BBA21C21072001F045FD01F0B2FB4FF491
:101A80007A7002F00EFA00209F490860641C042C52
:101A9000E4DB99480068E0B9002418E09548005D4F
:101AA000B349085501209449086001F0BDFB10239B
:101AB000B0A21C21072001F025FD01F092FB4FF49C
:101AC0007A7002F0EEF900208F490860641C042C43
:101AD000E4DB10BD10B585495220FFF7D5FE8449DF
:101AE00008700846007800287ED1022008708148DE
:101AF000FFF792FE7E4908707E48FFF7E9FC7D48BB
:101B000000789B490978884230D17A4840789849D2
:101B1000497888422AD177488078954989788842DF
:101B200024D17448C0789249C97888421ED10120D6
:101B30009449087094A003F011FFFFF73BFC0120CB
:101B400097490860642002F0ACF900209549C1F87B
:101B50009401642002F0A5F90120914908606420F5
:101B600002F09FF900208F49C1F894016148007884
:101B70007A490978884230D15E4840787749497877
:101B800088422AD15B48807874498978884224D178
:101B90005848C0787149C97888421ED101208249CD
:101BA000087082A003F0DAFEFFF704FC01207C49F4
:101BB0000860642002F075F900207A49C1F89401A8
:101BC000642002F06EF9012075490860642002F07B
:101BD00068F900207349C1F89401464800785A49D1
:101BE0000978884232D100E068E14248407856499D
:101BF000497888422AD13F48807853498978884279
:101C000024D13C48C0785049C97888421ED101206F
:101C10006C4908706CA003F0A1FEFFF7CBFB01201C
:101C20005F490860642002F03CF900205D49C1F87A
:101C30009401642002F035F90120594908606420BC
:101C400002F02FF900205749C1F894012948007883
:101C500038490978884230D1264840783549497852
:101C600088422AD12348807832498978884224D111
:101C70002048C0782F49C97888421ED10120584990
:101C8000087058A003F06AFEFFF794FB0120444956
:101C90000860642002F005F900204249C1F894016F
:101CA000642002F0FEF801203D490860642002F043
:101CB000F8F800203B49C1F894010E480078184913
:101CC0000978884208D10B484078154949788842FC
:101CD00002D10848807891E0B9E0000050555420C6
:101CE00043415244204F4E2E2E0000006800002039
:101CF000ED0000206A00002008000020434152440B
:101D00002046554C4C2100000C000020890000208A
:101D1000434152442036204953204F4E00000000DA
:101D200085000020434152442035204953204F4E26
:101D3000000000008100002043415244203420492B
:101D400053204F4E000000007D00002043415244CC
:101D50002033204953204F4E00000000790000201E
:101D6000434152442032204953204F4E000000008E
:101D700075000020434152442031204953204F4EEA
:101D8000000000006E0000200D0A546865205573A5
:101D900065722069733A636172645F300D0A0000F6
:101DA00094812142008021426F0000200D0A546876
:101DB0006520557365722069733A636172645F319F
:101DC0000D0A0000700000200D0A5468652055734C
:101DD00065722069733A636172645F320D0A0000B4
:101DE000710000200D0A54686520557365722069E2
:101DF000733A636172645F330D0A0000FE498978AB
:101E0000884224D1FD48C078FB49C97888421ED158
:101E10000120FB490870FBA003F0A0FDFFF7CAFA00
:101E20000120FE490860642002F03BF80020FC49D4
:101E3000C1F89401642002F034F80120F7490860E9
:101E4000642002F02EF80020F549C1F89401EB4817
:101E50000078F4490978884230D1E8484078F1495F
:101E6000497888422AD1E5488078EE4989788842C5
:101E700024D1E248C078EB49C97888421ED10120BC
:101E8000E9490870E9A003F069FDFFF793FA012022
:101E9000E2490860642002F004F80020E049C1F83B
:101EA0009401642001F0FDFF0120DC4908606420FA
:101EB00001F0F7FF0020DA49C1F8940110BD2DE9C7
:101EC000F04107468846154604210520FFF7DAFB56
:101ED00000210120FFF779FB80210A20FFF7C5FBD5
:101EE000002405E0395D0920FFF76FFB601CC4B2D8
:101EF0004445F7DB03210120FFF767FBFF2400BF08
:101F00000520FFF79BFB0646601EC4B21CB106F01D
:101F100004000028F4D02220FFF790FB2870212035
:101F2000FFF78CFB6870BDE8F081F0B587B005461F
:101F30000E4630208DF808008DF809500DF10A0288
:101F4000022102A8FFF7BBFF01A802AB042202A9ED
:101F500000900C20FFF7A3FB074667B90198902873
:101F600009D1002404E002A8005D3055601CC4B211
:101F7000102CF8DB00E00227384607B0F0BDF0B5C2
:101F800087B006460F46A0208DF808008DF809603E
:101F90000DF10A02022102A8FFF791FF01A802AB8E
:101FA000042202A900900C20FFF779FB054645B9F1
:101FB0000198042805D19DF8080000F00F000A28B8
:101FC00000D0022535BB1022394602A803F0EAFDF5
:101FD000002404E0385D02A90855601CC4B2102C2E
:101FE000F8DB06AA102102A8FFF769FF01A802ABDF
:101FF000122202A900900C20FFF751FB054645B9BB
:102000000198042805D19DF8080000F00F000A2867
:1020100000D00225284607B0F0BD2DE9F04387B077
:1020200006460F46904699468DF808608DF809706F
:10203000002406E018F8041002AAA01C1154601C29
:10204000C4B2062CF6DB002407E019F8041002AA3B
:1020500004F108001154601CC4B2062CF5DB01A881
:1020600002AB0C2202A900900E20FFF718FB0546D8
:102070002DB90820FFF7E2FA00F0080000B90225A8
:10208000284607B0BDE8F08370B588B005469320B8
:102090008DF80C0070208DF80D0000208DF81200D6
:1020A00000240BE0295D03AAA01C11549DF8120026
:1020B000295D48408DF81200601CC4B2042CF1DB8D
:1020C0000DF11302072103A8FFF7F9FE08210846C6
:1020D000FFF7D8FA02A803AB092203A900900C204D
:1020E000FFF7DDFA064626B90298182801D1002626
:1020F00000E00226304608B070BD10B500245149FA
:102100005220FFF7C1FB504908700846007830B9EB
:10211000022008703948FFF77FFB4B4908704A4896
:102120000078002866D10220474908703348FFF73D
:10213000CFF93248007845490978884218D12F48AC
:10214000407842494978884212D12C4880783F49EA
:10215000897888420CD12948C0783C49C97888429E
:1021600006D101203A490870AFF2E43003F0F6FBE3
:102170002248007837490978884218D11F484078AA
:1021800034494978884212D11C488078314989788D
:1021900088420CD11948C0782E49C978884206D1A6
:1021A00001202D490870AFF2FC3003F0D7FB134833
:1021B00000782A490978884218D110484078274980
:1021C0004978884212D10D4880782449897888421C
:1021D0000CD10A48C0782149C978884206D101202B
:1021E0001F490870AFF2204003F0B8FB03480078A5
:1021F0001C4939E078E00000850000206A000020DA
:10220000720000200D0A54686520557365722069BC
:10221000733A636172645F340D0A00009481214255
:102220000080214289000020730000200D0A5468BC
:102230006520557365722069733A636172645F3516
:102240000D0A000068000020ED000020750000204D
:102250006E000020790000206F0000207D0000202B
:1022600070000020810000200978884218D1F948C8
:102270004078F9494978884212D1F6488078F64981
:10228000897888420CD1F348C078F349C9788842EC
:1022900006D10120F1490870AFF2B84003F05EFBAF
:1022A000EC480078EE490978884218D1E94840782E
:1022B000EB494978884212D1E6488078E849897824
:1022C00088420CD1E348C078E549C978884206D1F4
:1022D0000120E4490870AFF2D40003F03FFBDD4871
:1022E000FFF7D2FEE0490870DF480078002826D1C9
:1022F0000220DD490870D74BDC4A0B216020FFF734
:102300008CFED94908700846007818B9D8A003F0A7
:1023100025FB02E0DDA003F021FBCE4BE24A0B21BE
:102320006120FFF77AFED04908700846007818B996
:10233000DEA003F013FB02E0E3A003F00FFBCA48AA
:10234000007810BB0220C8490870E649E6480078CA
:10235000FFF7EBFDC44908700846007890B9E3A088
:1023600003F0FCFA002406E0DE48015DE1A003F082
:10237000F5FA601CC4B2102CF6DBAFF2641003F067
:10238000EDFA02E0DDA003F0E9FAB7480078F0B911
:102390000220B5490870DEA003F0E0FA4FF47A702D
:1023A00001F07FFDE949D0480078FFF7E8FDAE492C
:1023B00008700846007818B9E5A003F0CFFA06E0E7
:1023C000E9A003F0CBFA40F6B83001F06AFDA64868
:1023D000007808BB0220A4490870C249C2480078AE
:1023E000FFF7A3FDA04908700846007888B9BFA090
:1023F00003F0B4FA002406E0BA48015DBDA003F082
:10240000ADFA601CC4B2102CF6DBC0A003F0A6FA33
:1024100002E0BAA003F0A2FA9348007848B902207B
:1024200091490870D5A003F099FA4FF47A7001F041
:1024300038FD10BD70B500240F25DC495220FFF790
:1024400023FA894908700846007830B902200870DC
:102450008048FFF7E1F98449087083480078002834
:1024600048D10220804908707A48FFF731F879484E
:102470000078CF490978884218D176484078CC490D
:102480004978884212D173488078C949897888424E
:102490000CD17048C078C649C978884206D101205D
:1024A000C4490870AFF2207003F058FA6948007808
:1024B000C1490978884218D166484078BE494978B0
:1024C000884212D163488078BB49897888420CD110
:1024D0006048C078B849C978884206D10120B74918
:1024E0000870AFF2387003F039FA5A48FFF7CCFDA4
:1024F0005D4908705C48007800282AD102205A49BA
:102500000870544B594A29466020FFF786FD56490A
:1025100008700846007818B955A003F01FFA06E0C5
:102520005AA003F01BFA00204F49087050E0494BB5
:102530005D4A29466120FFF770FD4B490870084647
:10254000007818B959A003F009FA02E05EA003F080
:1025500005FA4548007800BB0220434908706149EC
:102560002846FFF7E2FC404908700846007888B921
:102570005EA003F0F3F9002406E05A48015D5DA077
:1025800003F0ECF9601CC4B2102CF6DB5FA003F082
:10259000E5F902E059A003F0E1F933480078B0B959
:1025A00002203149087086492846FFF7E8FC2E4989
:1025B00008700846007818B982A003F0CFF906E049
:1025C00087A003F0CBF940F6B83001F06AFC00BFF9
:1025D00025480078002826D10220234908701D4B89
:1025E000864A29466020FFF718FD1F4908700846F3
:1025F000007818B982A003F0B1F902E087A003F0D7
:10260000ADF9144B8C4A29466120FFF706FD1649A7
:1026100008700846007818B988A003F09FF902E016
:102620008DA003F09BF91048007880B902200E4974
:1026300008702C492846FFF778FC0B4908700846BB
:10264000007828B929A003F089F900241AE124E1CF
:102650001FE100006A0000208100002071000020BE
:102660008500002072000020ED0000208D00002079
:1026700050636441757468537461746528412920FE
:10268000737563636573730D0A00000050636441E2
:102690007574685374617465284129206661696C9A
:1026A00065640D0A0000000093000020506364413F
:1026B0007574685374617465284229207375636367
:1026C0006573730D0A0000005063644175746853AC
:1026D00074617465284229206661696C65640D0A1D
:1026E0000000000050170020EE000020444154413B
:1026F0003A00000025303278000000005063645238
:102700006561642829206661696C65640D0A0000B2
:102710005772697465207468652063617264206112
:10272000667465722031207365636F6E642E204479
:102730006F206E6F74206D6F7665207468652063FE
:102740006172642121210D0A00000000DD000020DB
:1027500050636457726974652829207375636365D3
:1027600073730D0A0000000050636457726974654A
:102770002829206661696C65640D0A005243353270
:10278000325F48616E646C6528292072756E206620
:10279000696E6973686564206166746572203120B2
:1027A0007365636F6E64210D0A00000068000020ED
:1027B000750000206E000020790000206F000020CE
:1027C0009F0000205063645772697465285246491F
:1027D00044312920737563636573730D0A0000002B
:1027E0005063645772697465285246494431292000
:1027F0006661696C65640D0A00000000BF0000207E
:10280000506364417574685374617465284131295B
:1028100020737563636573730D0A00005063644130
:102820007574685374617465284131292066616943
:102830006C65640D0A000000CB0000205063644109
:102840007574685374617465284231292073756307
:10285000636573730D0A00005063644175746853B7
:102860007461746528423129206661696C65640D64
:102870000A000000FE48015DAFF2881003F06EF818
:10288000601CC4B2102CF5DBAFF2801003F066F8C8
:1028900003E0AFF2981003F061F8F6480078B0B9A1
:1028A0000220F4490870F4492846FFF768FBF14913
:1028B00008700846007818B9F0A003F04FF806E059
:1028C000F5A003F04BF840F6B83001F0EAFAE94819
:1028D0000078F8B90220E7490870E5492846FFF773
:1028E00024FBE449087008460078A0B9AFF2042040
:1028F00003F034F8002407E0DD48015DAFF20C205E
:1029000003F02CF8601CC4B2102CF5DBAFF20420ED
:1029100003F024F803E0AFF21C2003F01FF8D548C1
:10292000007848B90220D3490870E2A003F016F8F5
:102930004FF47A7001F0B5FA70BD30B5C5B013250B
:1029400000240020439044904FF48272E54902A88D
:1029500003F06DF9002000900190E3495220FEF74A
:1029600093FFC44908700846007830B90220087007
:10297000DE48FEF751FFBF490870BE4800780028C6
:102980002FD10220BB490870D848FEF7A1FDD748D7
:102990000078D7490978884219D1D4484078D44979
:1029A0004978884213D1D1488078D14989788842C2
:1029B0000DD1CE48C078CE49C978884207D10120D0
:1029C000CC490870AFF6404002F0C8FF04E0CAA04E
:1029D00002F0C4FF45B030BDC448FFF755FBA54920
:1029E0000870A448007800287ED10220A149087010
:1029F00000208DF8000094E000208DF8010085E0B3
:102A000000208DF8020077E000208DF8030067E0D9
:102A100000208DF8040059E000208DF805004BE0FF
:102A20009DF8000002A9085C8DF80C019DF80100DA
:102A3000085C8DF80D019DF80200085C8DF80E0110
:102A40009DF80300085C8DF80F019DF80400085CF8
:102A50008DF810019DF80500085C8DF81101A34B5D
:102A600043AA29466020FFF7D8FA82490870084631
:102A7000007820B9AFF2084002F070FF57E0AFF6DF
:102A8000985002F06BFF994B43AA29466120FFF74B
:102A9000C4FA784908700846007820B9AFF2F430DB
:102AA00002F05CFF43E09BA002F058FF9DF8050098
:102AB000401CC0B28DF805009DF80500FF28AFDD71
:102AC0009DF80400401CC0B28DF804009DF804007D
:102AD000FF28A1DD9DF80300401CC0B28DF8030063
:102AE0009DF80300FF2800E020E091DD9DF8020042
:102AF000401CC0B28DF802009DF80200FF2883DD63
:102B00009DF80100401CC0B28DF801009DF8010045
:102B1000FF287FF775AF9DF80000401CC0B28DF80C
:102B200000009DF80000FF287FF766AF00BF514806
:102B3000007818BB02204F4908704D492846FFF71E
:102B4000F4F94C4908700846007898B9AFF264402F
:102B500002F004FF002407E04548015DAFF26C403D
:102B600002F0FCFE601CC4B2102CF5DB5CA002F08D
:102B7000F5FE03E0AFF27C4002F0F0FE40F6B83024
:102B800001F08FF900BF25E710B51420FEF756FDC0
:102B9000044604F0030018B903211420FEF765FD74
:102BA00010BD10B50446412C24D108210846FEF77B
:102BB00069FD3D211120FEF708FD86211720FEF753
:102BC00004FD7F212620FEF700FD1E212D20FEF7AB
:102BD000FCFC00212C20FEF7F8FC8D212A20FEF7BA
:102BE000F4FC3E212B20FEF7F0FC022001F035F929
:102BF000FFF7CAFF10BD10B50421474801F019FBCB
:102C0000012001F02AF90421434801F014FB0120BE
:102C100001F023F90421404801F00BFB012001F0F1
:102C20001CF90F210120FEF7D0FC00BF0120FEF7A8
:102C300005FD00F010000028F8D1012001F00DF989
:102C40003D211120FEF7C1FC1E212D20FEF7BDFC09
:102C500000212C20FEF7B9FC8D212A20FEF7B5FCBF
:102C60003E212B20FEF7B1FC4021152056E000004C
:102C700050170020ED000020AF0000205063645783
:102C8000726974652852464944322920737563631A
:102C90006573730D0A0000005063645772697465B0
:102CA00028524649443229206661696C65640D0AE0
:102CB0000000000052433532325F48616E646C653B
:102CC0003128292072756E2066696E6973686564A3
:102CD0002061667465722031207365636F6E6421B4
:102CE0000D0A000094680008680000206A000020B7
:102CF000750000206E0000200D0A54686520557391
:102D000065722069736E27743A636172645F300D77
:102D10000A0000002C00000000100140FEF755FCE6
:102D200010BD00B587B00121142001F091FC0121F4
:102D3000080301F09AFC1020ADF818008DF81B0074
:102D400003208DF81A0006A9904801F0C5F9042067
:102D5000ADF8180010208DF81B0003208DF81A0024
:102D600006A98A4801F0B8F94020ADF818000420FF
:102D70008DF81B0003208DF81A0006A9834801F086
:102D8000ABF90120ADF8180010208DF81B000320CE
:102D90008DF81A0006A97D4801F09EF90420ADF8CF
:102DA000180010208DF81B0003208DF81A0006A9CA
:102DB000774801F091F90020ADF804004FF48270DB
:102DC000ADF806000020ADF808000220ADF80A00BA
:102DD0000120ADF80C004002ADF80E003820ADF82F
:102DE00010000020ADF812000720ADF8140001A972
:102DF000684802F0C5FB0121664802F066FC07B096
:102E000000BD10B5FFF78DFF0421614801F011FAF4
:102E100010215E4801F00DFAFFF7EDFE4120FFF7AB
:102E2000C0FE10BD10B503211420FEF72BFC10BD11
:102E300000B587B050208DF8080000208DF80900FB
:102E40000DF10A02022102A8FFF739F801A802AB2E
:102E5000042202A900900C20FEF721FC002007B0FC
:102E600000BD2DE9F84F06460F4693469846DDE92A
:102E70000A9A00250020009069465220FEF704FDC2
:102E800004461CB96846FEF723FB01E0BDE8F88F55
:102E90006846FEF7C1FC044604B1F7E73046FFF789
:102EA000F3F804461CB13CA002F058FDEEE73FB930
:102EB00033465A4649466020FFF7AFF8044606E01D
:102EC00033465A4649466120FFF7A7F804461CB12D
:102ED00036A002F043FDD9E7B8F1000F1ED05146ED
:102EE0004846FFF722F804469CB935A002F036FDAB
:102EF000002507E01AF80510AFF6080002F02EFDD5
:102F0000681CC5B2102DF5DBAFF22C2002F026FDB7
:102F100013E0AFF6180002F021FDB7E7514648462E
:102F2000FFF72DF804461CB927A002F017FD04E0B6
:102F3000AFF2CC7002F012FDA8E7FFF779FF04466C
:102F40001CB927A002F00AFD03E02BA002F006FD49
:102F50009CE700BF9AE738B516E069465220FEF7B5
:102F600093FC044664B169465220FEF78DFC04468A
:102F700034B169465220FEF787FC044604B138BDDF
:102F80004FF47A7000F08DFFE7E700000008014081
:102F9000001001400030014055494420646F6E2705
:102FA00074206D617463680D0A0000004B45592060
:102FB000646F6E2774206D617463680D0A000000F1
:102FC000646174613A00000050636457726974650B
:102FD00028292066696E69736865640D0A0000001F
:102FE00050636448616C7428292066696E6973684F
:102FF00065640D0A0000000050636448616C742829
:1030000029206661696C65640D0A000008B501211C
:10301000082001F01DFB2020ADF8000010208DF8E5
:10302000030003208DF802006946114801F054F8AE
:1030300020210F4801F0FDF84FF48070ADF800003A
:1030400028208DF8030003208DF802006946084807
:1030500001F042F80420ADF8000010208DF80300C4
:1030600001208DF802006946014801F035F808BDDD
:10307000000C014010B54FF48071FA4801F0D9F806
:103080004FF40071F74801F0D6F84FF40071F5489D
:1030900001F0CFF810BD10B54FF48071F14801F088
:1030A000C8F84FF48071EF4801F0C5F810BD70B555
:1030B0000446002520E04FF48071EA4801F0BBF897
:1030C00004F0800028B14FF40071E64801F0B1F837
:1030D00004E04FF40071E34801F0ADF84FF4807163
:1030E000E04801F0A6F84FF48071DE4801F0A3F843
:1030F0006006040E681CC5B2082DDCDB70BD10B57F
:103100004FF40071D74801F094F84FF48071D5481E
:1031100001F08FF84FF40071D24801F08CF84FF4B1
:103120008071D04801F087F810BD70B505460C4697
:10313000FFF7E5FF7820FFF7BAFFFFF7ACFF1CB100
:103140004020FFF7B4FF02E00020FFF7B0FFFFF7D9
:10315000A2FF2846FFF7ABFFFFF79DFFFFF78AFFAF
:1031600070BD10B504461CB90021A620FFF7DDFF95
:10317000012C03D10021A720FFF7D7FF10BD10B508
:1031800004463CB90021C820FFF7CFFF0021A12051
:10319000FFF7CBFF012C07D10021C020FFF7C5FFAF
:1031A0000021A020FFF7C1FF10BD10B500218D2028
:1031B000FFF7BBFF00211420FFF7B7FF0021AF206E
:1031C000FFF7B3FF10BD10B500218D20FFF7ADFF55
:1031D00000211020FFF7A9FF0021AF20FFF7A5FF76
:1031E00010BD70B500241CE004F1B001C8B200218C
:1031F000FFF79BFF00210846FFF797FF00211020F3
:10320000FFF793FF002508E0974901EBC501085D32
:103210000121FFF78AFF681CC5B2802DF4DB601C1A
:10322000C4B2082CE0DB70BD70B500240CE00025B2
:1032300006E000208C4901EBC5010855681CC5B2A9
:10324000802DF6DB601CC4B2082CF0DBFFF7C9FF51
:1032500070BD70B50A46CE1701EB5676C6F3C703AC
:10326000CE1701EB5676F610A1EBC606F4B201229A
:10327000A240D5B27C4A02EBC002D25C2A437A4E0D
:1032800006EBC006F25470BD70B50B46CE1701EBCD
:103290005676C6F3C702CE1701EB5676F610A1EBB1
:1032A000C606F4B20123A340DDB26F4B03EBC003AB
:1032B0009B5CDB436C4E06EBC006B3546A4B03EBDE
:1032C000C0039B5C2B43684E06EBC006B354664BB1
:1032D00003EBC0039B5CDB43634E06EBC006B354B9
:1032E00070BD2DE9F84F05460E4617469846BD427B
:1032F0000DD1002406E03019C1B22846FFF7A9FF1E
:10330000601CC4B2A8EB0600A042F4DC30E04645E5
:103310000CD1002406E02919C8B23146FFF799FF05
:10332000601CC4B2781BA042F5DC21E0A8EB0600CB
:1033300000F0FF0A781B00F0FF0B0AEB8A00400048
:1033400090FBFBF000F0FF0900240EE004FB09F005
:103350000A2190FBF1F03044C0B229190090C8B2A4
:103360000099FFF776FF601CC4B2781BA042EDDC29
:10337000BDE8F88F2DE9F04306460F46904600253C
:1033800044463BE03A1BD1B27219D0B2FFF761FF5D
:103390003A1BD1B2721BD0B2FFF75BFF3A19D1B220
:1033A000721BD0B2FFF755FF3A19D1B27219D0B2E1
:1033B000FFF74FFF7A19D1B23219D0B2FFF749FFA8
:1033C0007A1BD1B23219D0B2FFF743FF7A1BD1B2C8
:1033D000321BD0B2FFF73DFF7A19D1B2321BD0B207
:1033E000FFF737FF6D1C05FB05F004FB040008FB2D
:1033F0001809B9F1000F01DD641E6D1E6000604305
:1034000008FB08F18842BDDABDE8F0832DE9FF4FE3
:1034100081B080460E461C4600962046E31704EB1A
:103420005373DB1021464FEAE47C04EB5C7C4FEAEB
:10343000EC0CA4EBCC0CBCF1000F02D04FF0010C53
:1034400001E04FF0000C6344224604EBD27C4FEACB
:103450006C0C03FB0CF303F0FF0B03982038C7B28E
:1034600000254BE000100140801700200C2C07D1F4
:1034700007EB4700FE4901EB800010F805A014E0BF
:10348000102C05D1FB4800EB071010F805A00CE04C
:10349000182C07D107EBC700F74901EB800010F8A3
:1034A00005A002E005B0BDE8F08F4FF000091FE075
:1034B0000AF0800020B131464046FFF7CAFE03E023
:1034C00031464046FFF7E0FE4FEA4A604FEA106A95
:1034D000701CC6B20098301AA04205D1009E08F1B7
:1034E000010000F0FF0806E009F1010000F0FF090B
:1034F000B9F1080FDCDB00BF681CC5B25D45B5DB68
:1035000000BFCFE7F0B506460F4614461D4613E050
:1035100022782B4639463046FFF778FF284605EBE0
:10352000D07106EB6101CEB2C5F18000B04202DA83
:103530000026B81CC7B2641C2078202802DB207843
:103540007E28E5DDF0BD10B50246012000E05043C5
:103550000B1EA1F10104E1B2F9D110BD2DE9F04F2C
:1035600006468A4691461F46099C00252CE0781B9A
:10357000401EC1B20A20FFF7E6FFB9FBF0F00A21B6
:10358000B0FBF1F201FB1208B8F1000F0CD1A34619
:1035900004EBDB71491001FB0561C8B22346302200
:1035A0005146FFF733FF0DE0A34604EBDB714910F2
:1035B00001FB0561C8B208F13001CAB22346514689
:1035C000FFF724FF681CC5B2BD42D0DBBDE8F08F19
:1035D0002DE9FF4F0746884691461C464FF0000BE9
:1035E0000297CDF804802046E11704EB5171C1F336
:1035F000C701009160E009FB04F0C11700EB5171B5
:103600000BEBE101CEB20BF1010000F0FF0B002546
:1036100050E0102C05D1994800EB0610405D039056
:103620001BE0182C07D106EBC600954901EBC00042
:10363000405D039011E0202C05D1924800EBC610AC
:10364000405D039009E0402C05D18F4800EB4620F7
:10365000405D039001E0BDE8FF8F4FF0000A17E0E6
:10366000039800F0010020B141463846FFF7F1FD14
:1036700003E041463846FFF707FE039840100390E9
:1036800008F1010000F0FF080AF1010000F0FF0A54
:10369000BAF1080FE4DB781CC7B20298381AA042CE
:1036A00004D1029F01980830C0B20190DDF8048077
:1036B000681CC5B2A542ACDB0098411EC9B200919E
:1036C000002898D100BFC6E780468946002600271B
:1036D00049E03FB91023324618218020FFF778FFD8
:1036E000701CC6B2464522D14FF0000A1AE00024F1
:1036F00010E000250AE0654800EBC400415D601E53
:10370000624A02EBC0004155681CC5B2082DF2DBCD
:10371000601CC4B2902CECDBFFF763FD0AF10100E2
:1037200000F0FF0A4FEA09105045E0DC0026781C43
:10373000C7B2102F00D10027002410E000250AE0B6
:10374000524800EBC400415D601E504A02EBC000CD
:103750004155681CC5B2082DF2DB601CC4B2902C28
:10376000ECDBFFF73EFDB4E770B504460D4605F10E
:10377000B001C8B20021FFF7D8FC102141EA1410B3
:103780000021FFF7D2FC04F00F000021FFF7CDFC71
:1037900070BD2DE9F05F05460E4617469846DDF8E8
:1037A00028B04FF00009CA460024E11704EB51711C
:1037B000C910A4EBC10101B901E0601CC4B23446D8
:1037C00014E021462846FFF7CFFFAA460AE01BF87F
:1037D00009000121FFF7A9FC09F101090AF1010023
:1037E00000F0FF0ABA45F2DB601CC4B24445E8DBD6
:1037F000BDE8F09F08B50121102000F029FF4FF42B
:103800004070ADF8000010208DF8030003208DF803
:10381000020069461E4800F05FFC4FF440711C48EE
:1038200000F007FDC82000F03CFB0021AE20FFF7B0
:103830007CFC00210846FFF778FC00211020FFF7F0
:1038400074FC00214020FFF770FC0021B020FFF73E
:103850006CFC00218120FFF768FC0021FF20FFF7AE
:1038600064FC0021A120FFF760FC0021A62011E0EC
:1038700095690008096E0008F9730008EF00002040
:103880004F02002027030020270700208017002078
:1038900000100140FFF749FC0021A820FFF745FC7C
:1038A00000213F20FFF741FC0021C820FFF73DFC2D
:1038B0000021D320FFF739FC00210846FFF735FC33
:1038C0000021D520FFF731FC00218020FFF72DFCDF
:1038D0000021D820FFF729FC00210520FFF725FC57
:1038E0000021D920FFF721FC0021F120FFF71DFC6A
:1038F0000021DA20FFF719FC00211220FFF715FC48
:103900000021DB20FFF711FC00213020FFF70DFC28
:1039100000218D20FFF709FC00211420FFF705FC92
:103920000021AF20FFF701FC08BD000008B5012110
:10393000142000F08DFE42F2A800ADF800004820EF
:103940008DF8030069469B4800F0C6FB41F6024033
:10395000ADF8000010208DF8030003208DF8020060
:103960006946954800F0B8FB41F60241924800F0E4
:1039700060FC08BD10B504460020904908609049DD
:10398000C1F8AC018D49083108608D49C1F8840146
:103990004FF40051874800F032FC012819D108216A
:1039A000844800F02CFC012813D12021814800F02C
:1039B00026FC01280DD120217E4800F020FC0128A2
:1039C00007D180217B4800F01AFC012801D1C820D2
:1039D00010BD4FF40051774800F011FC78B1082178
:1039E000744800F00CFC50B12021724800F007FC34
:1039F00028B180216F4800F002FC002873D1162006
:103A000000F04FFA012000F04CFA00206B490860EA
:103A100001206B49C1F8AC01684908310860684968
:103A2000C1F884014103634800F0E9FB08B90D20A7
:103A3000CEE708215F4800F0E2FB08B90E20C7E797
:103A400020215C4800F0DBFB08B90020C0E78021A2
:103A5000584800F0D4FB08B90F20B9E7012000F066
:103A600020FA01205549086000205549C1F8AC01F1
:103A700001205249083108605149C1F884014103CD
:103A80004C4800F0BCFB08B90C20A1E708214948CC
:103A900000F0B5FB08B909209AE72021454800F05D
:103AA000AEFB08B9082093E78021424800F0A7FB4D
:103AB00008B907208CE7012000F0F3F901203F4905
:103AC00008603F49C1F8AC0100203C49083108605A
:103AD00001203B49C1F884014103364800F08FFBC7
:103AE00010B90B2074E741E00821324800F087FB51
:103AF00008B906206CE720212E4800F080FB08B9A9
:103B0000052065E780212B4800F079FB08B90420E7
:103B10005EE7012000F0C5F9012028490860284926
:103B2000C1F8AC0125490831086000202449C1F8DA
:103B300084014FF400511F4800F061FB08B90A20CE
:103B400046E708211B4800F05AFB08B903203FE76D
:103B50002021184800F053FB08B9022038E78021E3
:103B6000144800F04CFB10BB012031E74FF400512A
:103B7000104800F044FB012819D108210D4800F03D
:103B80003EFB012813D120210A4800F038FB012810
:103B90000DD12021074800F032FB012807D18021F8
:103BA000044800F02CFB012801D1C82010E7C820F0
:103BB0000EE700000008014000100140A801224269
:103BC0000000224208B50121142000F041FD01212E
:103BD000284800F052FB4FF40040ADF800004820A8
:103BE0008DF803006946244800F076FA2020ADF8ED
:103BF000000048208DF803006946204800F06CFA68
:103C000008BD10B5044614B101201D4908701C48B8
:103C10000078F8B12021194800F0F1FA28B14FF4EA
:103C20000041154800F0EBFAA0B90A2000F039F97C
:103C30000020134908702021104800F0E0FA08B96C
:103C4000012010BD4FF400410B4800F0D8FA78B9BC
:103C50000220F6E72021094800F0D1FA012807D117
:103C6000C103054800F0CBFA012801D104490870CE
:103C70000020E6E70002300000080140001001408B
:103C8000271700200EB50121084600F0E1FCFFF7E0
:103C900099FF0521022000F035FB20200190002033
:103CA0008DF808000C208DF8090001208DF80A001D
:103CB00001A801F0D3FD0F21002000F023FB4FF4F9
:103CC0000040019000208DF808000C208DF80900BC
:103CD00001208DF80A0001A801F0C0FD17208DF821
:103CE000000002208DF8010001208DF802008DF8FF
:103CF0000300684600F027F928208DF80000022014
:103D00008DF8010000208DF8020001208DF80300DD
:103D1000684600F018F90EBD10B50A2000F0C1F891
:103D200020210E4800F06BFA10B901200C49086000
:103D3000202001F00AFE10BD10B50A2000F0B1F8F5
:103D40004FF40041074800F05AFA10B90220044924
:103D500008604FF4004001F0F8FD10BD0010014074
:103D6000000000200008014000B589B0012108468C
:103D700000F07BFC0121042000F06AFC18208DF883
:103D800023000220ADF8200003208DF8220008A9AE
:103D9000244800F0A1F94FF0804001F021F9002003
:103DA000ADF81A00ADF8160044F61F60ADF8180023
:103DB0004720ADF8140000208DF81C0005A94FF035
:103DC000804000F07DFD01A801F0AFF86020ADF863
:103DD00004000020ADF80C000120ADF80600002022
:103DE000ADF80A0001A94FF0804000F0E8FD012184
:103DF000880701F0C1F809B000BD70B50446B420D1
:103E000094FBF0F000EB4001C1EBC0104FF4FA71ED
:103E100001EB001085B229464FF0804001F046FBCF
:103E200070BD00000008014010B56FF0040000F004
:103E3000D4F82E4800682E49B0FBF1F02D490870E7
:103E40000846007800EB4001C1EBC0104FF6FF714F
:103E500001EAC0002849088010BD0146254A1278B1
:103E60004A434FF0E0235A6100229A611A461269D0
:103E700042F001021A6100BF4FF0E022106900F029
:103E800001021AB100F48032002AF5D04FF0E0228E
:103E9000126922F001024FF0E0231A6100229A61B8
:103EA00070470146144A12884A434FF0E0235A6192
:103EB00000229A611A46126942F001021A6100BF9B
:103EC0004FF0E022106900F001021AB100F48032D4
:103ED000002AF5D04FF0E022126922F001024FF0E3
:103EE000E0231A6100229A6170470000540000200C
:103EF00000127A002C1700202E1700200948804756
:103F000009480047FEE7FEE7FEE7FEE7FEE7FEE7BB
:103F1000FEE7FEE7FEE7FEE704480549054A064BD3
:103F200070470000B312000831010008601D002036
:103F300060230020601F0020601F002031490143E2
:103F4000314A1160704770B5002100230F22C478F8
:103F500004B32D4C246804F4E064C4F5E064210A41
:103F6000C1F10403CA40447804FA03F18478144090
:103F700021430901254C0678A155047804F01F055A
:103F80000124AC4005786D11AD0005F1E025C5F8C0
:103F9000004109E0047804F01F050124AC401C4DE9
:103FA0000678761145F8264070BD1A4A0A40024349
:103FB000154B1B1F1A60704739B1134A121D126846
:103FC0000243114B1B1D1A6006E00F4A121D1268B6
:103FD00082430D4B1B1D1A607047042808D14FF017
:103FE000E021096941F004014FF0E022116107E08E
:103FF0004FF0E021096921F004014FF0E022116146
:10400000704700000000FA050CED00E000E400E05D
:1040100080E100E080FFFF1F10B50446CC488442D9
:1040200008D10121042000F02DFB0021042000F024
:1040300029FB46E0C748844208D10121082000F04E
:1040400021FB0021082000F01DFB3AE0C248844219
:1040500008D10121102000F015FB0021102000F0F4
:1040600011FB2EE0BD48844208D10121202000F040
:1040700009FB0021202000F005FB22E0B848844223
:1040800008D10121402000F0FDFA0021402000F07D
:10409000F9FA16E0B348844208D10121802000F0EB
:1040A000F1FA0021802000F0EDFA0AE0AE488442E7
:1040B00007D10121801500F0E5FA0021A01500F0DC
:1040C000E1FA10BD10B50121084600F0DBFA00212D
:1040D000012000F0D7FA10BD2DE9F041024600257D
:1040E0000026002000230024002791F803C00CF0D4
:1040F0000F0591F803C00CF0100CBCF1000F03D0B9
:1041000091F802C04CEA050591F800C0BCF1000F1F
:1041100031D0146800202BE04FF0010C0CFA00F3B2
:10412000B1F800C00CEA03069E4220D183004FF094
:104130000F0C0CFA03F7BC4305FA03FC4CEA040429
:1041400091F803C0BCF1280F06D14FF0010C0CFA16
:1041500000FCC2F814C00AE091F803C0BCF1480F9B
:1041600005D14FF0010C0CFA00FCC2F810C0401C45
:104170000828D1D31460B1F800C0BCF1FF0F34DDC2
:10418000546800202EE000F1080C4FF0010808FAF6
:104190000CF3B1F800C00CEA03069E4221D1830063
:1041A0004FF00F0C0CFA03F7BC4305FA03FC4CEA82
:1041B000040491F803C0BCF1280F05D100F1080CEC
:1041C00008FA0CF8C2F8148091F803C0BCF1480F4B
:1041D00007D100F1080C4FF0010808FA0CF8C2F8FA
:1041E0001080401C0828CED35460BDE8F0814FF603
:1041F000FF710180022181700421C1707047024665
:10420000002093680B400BB1012000E000207047B4
:104210000146886880B2704702460020D3680B4090
:104220000BB1012000E0002070470146C86880B251
:10423000704701617047416170470AB1016100E058
:1042400041617047C16070474FF480320A43826118
:104250008161826182698269704702460020434B16
:1042600018684FF68073184040EA021008433F4B2D
:10427000186070473E49C8617047F0B50A46002390
:1042800000240021002500F00046B6F1004F02D1C5
:10429000364EF16901E0354E7168C0F3034583B2D3
:1042A00000F44016B6F5401F08D121F070612F4E82
:1042B000766826F070662D4F7E6012E000F480165E
:1042C000B6F5801F06D1032606FA05F4A14341F096
:1042D000706106E0460D360103FA06F6B14341F07F
:1042E000706122B1460D360103FA06F6314300F043
:1042F0000046B6F1004F02D11C4EF16101E01B4EA9
:104300007160F0BD30B500228B071C0F0F2303FA3C
:1043100004F2164B08338C1053F824309343134C9B
:1043200008348D1044F8253023468C1053F824307F
:104330008C07240F00FA04F423430C4C08348D102E
:1043400044F8253030BD0A49DC3108607047000070
:1043500000080140000C0140001001400014014021
:1043600000180140001C01400020014000000140F5
:1043700000002042DF48006840F00100DD4908608D
:1043800008464068DC490840DA4948600846006849
:10439000DA490840D74908600846006820F48020C0
:1043A00008600846406820F4FE0048604FF41F0093
:1043B00088607047CF49096821F48031CD4A116087
:1043C0001146096821F480211160B0F5803F03D0C7
:1043D000B0F5802F0ED106E0C649096841F480315E
:1043E000C44A116007E0C349096841F4A021C14AE9
:1043F000116000E000BF00BF704710B50146002209
:10440000002300204A11012A02D1BA4C236806E099
:10441000022A02D1B74C236A01E0B64C636A01F06C
:104420001F02012494401C400CB1012000E0002038
:1044300010BD38B5002000900024002500BF3120B9
:10444000FFF7DBFF05460098401C00900098B0F590
:10445000A06F01D0002DF2D03120FFF7CEFF08B1C0
:10446000012400E00024204638BD01460020A14A76
:10447000106820F0F80040EAC10010607047A049C1
:1044800008607047024600209A4B586820F47C1060
:1044900042EA01031843974B5860704798490866F1
:1044A000704701460020934A506820F003000843FB
:1044B000506070478F48406800F00C00704701461C
:1044C00000208C4A506820F0F0000843506070478C
:1044D00001460020874A506820F4E060084350609D
:1044E000704701460020834A506820F4605040EA3B
:1044F000C1005060704729B17E4A527A02437D4B19
:104500005A7204E07B4A527A82437A4B5A7270475D
:104510007B49D8310860704701460020754A5068D1
:1045200020F440400843506070470021714A203217
:104530001170704A82F82010012802D004280AD194
:1045400004E001216B4A2032117005E00521694A1F
:104550002032117000E000BF00BF70476949086059
:1045600070476449096A0143624A116270476549AC
:1045700044390860704730B5002100220024002330
:104580005C4D6D6805F00C0121B1042905D00829A6
:1045900023D105E05C4D056022E05B4D05601FE026
:1045A000544D6D6805F47012524D6D6805F48034F9
:1045B000022505EB92421CB9544D554305600BE0B2
:1045C0004C4D6D6805F400351DB1504D55430560E7
:1045D00002E04D4D5543056002E04B4D056000BFC4
:1045E00000BF444D6D6805F0F0010909484D6B5C52
:1045F0000568DD4045603F4D6D6805F4E061090ADE
:10460000434D6B5C4568DD4085603A4D6D6805F44F
:104610006051C90A3E4D6B5C4568DD40C560354D53
:104620006D6805F44041890B3A4D6B5CC568B5FB7C
:10463000F3F5056130BD29B12E4A526902432D4B75
:104640005A6104E02B4A526982432A4B5A617047EF
:1046500029B1284A92690243264B9A6104E0254A0F
:1046600092698243234B9A61704729B1214AD269EA
:104670000243204BDA6104E01E4AD26982431D4B9B
:10468000DA61704729B11B4AD2680243194BDA60DC
:1046900004E0184AD2688243164BDA60704729B1A9
:1046A000144A12690243134B1A6104E0114A126959
:1046B0008243104B1A6170471249403908607047B5
:1046C0000F49C86470470B49C87170470948406A70
:1046D00040F0807007494862704701460020054A53
:1046E00092680A400AB1012000E0002070470149A9
:1046F00088727047001002400000FFF8FFFFF6FECE
:10470000000042428004424200127A0000093D004B
:10471000301700204017002010B50446FE488442A0
:1047200008D10121C014FFF7ADFF0021E014FFF70D
:10473000A9FFC4E0B4F1804F08D101210846FFF77A
:10474000AEFF00210120FFF7AAFFB8E0F348844242
:1047500008D101210220FFF7A2FF00210220FFF76C
:104760009EFFACE0EE48844208D101210420FFF70F
:1047700096FF00210420FFF792FFA0E0E948844261
:1047800008D101210820FFF78AFF00210820FFF748
:1047900086FF94E0E448844208D101211020FFF70D
:1047A0007EFF00211020FFF77AFF88E0DF48844277
:1047B00008D101212020FFF772FF00212020FFF700
:1047C0006EFF7CE0DA48844208D101214014FFF7F3
:1047D00059FF00216014FFF755FF70E0D54884426F
:1047E00009D10121C804FFF74DFF00214FF400203B
:1047F000FFF748FF63E0D048844209D10121080552
:10480000FFF740FF00214FF48010FFF73BFF56E019
:10481000CA48844209D101214805FFF733FF00212E
:104820004FF40010FFF72EFF49E0C548844208D13D
:1048300001214020FFF733FF00214020FFF72FFF29
:104840003DE0C048844208D101218020FFF727FFC6
:1048500000218020FFF723FF31E0BB48844208D1CC
:1048600001218015FFF71BFF0021A015FFF717FF9F
:1048700025E0B648844209D101210804FFF702FF70
:1048800000214FF48030FFF7FDFE18E0B04884426D
:1048900009D101214804FFF7F5FE00214FF4003053
:1048A000FFF7F0FE0BE0AB48844208D101218804F9
:1048B000FFF7E8FE00214FF48020FFF7E3FE10BD74
:1048C00000220288944B98420ED0994B98420BD00C
:1048D000B0F1804F08D0914B984205D0904B984250
:1048E00002D0904B984204D14FF68F731A404B88F8
:1048F0001A438D4B984207D08C4B984204D04FF608
:10490000FF431A40CB881A4302808B8883850B882B
:104910000385814B98420BD0854B984208D08B4B36
:10492000984205D08A4B984202D08A4B984201D1D6
:104930000B7A038601238382704770B5002400221E
:104940000023058C4FF6FE7635400584028C838863
:10495000048B4FF68F752C40B51E2C400D882C43D0
:10496000751E2A400D892A434D882A436A4DA84264
:104970000BD06F4DA84208D0744DA84205D0744D9D
:10498000A84202D0734DA84213D14FF6F7752A40C2
:104990004D892A434FF6FB752A408D882A434FF6EE
:1049A000FF652B404FF6FF552B408D892B43CD895A
:1049B0002B4383800483CD888586028470BD70B5C7
:1049C000002400220023058C4FF6EF763540058445
:1049D000028C8388048B48F6FF752C404FF6FF4508
:1049E0002C400D884FF6FF7606EA05252C434FF63E
:1049F000DF752A400D8906EA05152A434D8806EA27
:104A000005152A43444DA84202D0494DA8421DD164
:104A10004FF67F752A404D894FF6FF7606EA051559
:104A20002A434FF6BF752A408D8806EA05152A43AA
:104A30004FF6FF352B404FF2FF752B408D8906EA6C
:104A400085052B43CD8906EA85052B4383800483A6
:104A5000CD880587028470BD70B500240022002334
:104A6000058C4FF6FF6635400584028C8388848B65
:104A70004FF68F752C404FF6FC752C400D882C435B
:104A80004FF6FF552A400D894FF6FF7606EA0525B9
:104A90002A434D8806EA05252A431F4DA84202D025
:104AA000234DA8421DD14FF2FF752A404D894FF684
:104AB000FF7606EA05252A434FF6FF352A408D8802
:104AC00006EA05252A434EF6FF752B404DF6FF7585
:104AD0002B408D8906EA05152B43CD8906EA05157D
:104AE0002B4383808483CD888587028470BD70B515
:104AF000002200230024058C4EF6FF763540058405
:104B0000038C8488828B48F6FF752A404FF6FF4558
:104B10002A400D8820E00000002C014000040040E5
:104B200000080040000C004000100040001400404D
:104B300000340140004C014000500140005401404D
:104B400000180040001C00400020004000400140D0
:104B500000440140004801404FF6FF7606EA052573
:104B60002A434DF6FF752B400D8906EA05352B4388
:104B70004D8806EA05352B43FA4DA84202D0FA4D7E
:104B8000A84208D14BF6FF752C408D894FF6FF7671
:104B900006EA85152C4384808283CD88A0F8405096
:104BA000038470BD828B4FF2FF331A408283828B65
:104BB0004FF6FF7303EA01231A4382837047F0B56F
:104BC0000C461546002200210026078C4EF6FF7C7D
:104BD00007EA0C070784828B018C4FF6FF7707EA00
:104BE000043640F6FF473A404FF6FF7707EA0527BD
:104BF0003A434FF6FF7707EA03373A43D94FB842B3
:104C00000ED0D94FB8420BD0B0F1804F08D0D74F5B
:104C1000B84205D0D64FB84202D0D64FB84206D1DE
:104C20004DF6FF77394046F48057394305E047F6A3
:104C3000FF57394044F48057394382830184F0BDE3
:104C4000828B4FF6F3731A408283828B0A438283EE
:104C50007047F0B50C461546002200210026078C4F
:104C60004FF6FF6C07EA0C070784828B018C4FF626
:104C7000FF7707EA04264FF60C773A404FF6FF77A6
:104C800007EA03172F433A43B64FB8420ED0B64F48
:104C9000B8420BD0B0F1804F08D0B44FB84205D025
:104CA000B34FB84202D0B34FB84206D14FF6FF57C8
:104CB000394046F48077394305E04FF2FF573940D9
:104CC00044F48077394382830184F0BD028B4FF234
:104CD000FF331A400283028B4FF6FF7303EA01236E
:104CE0001A4302837047F0B50C4615460022002196
:104CF0000026078C4FF6EF7C07EA0C070784028B2F
:104D0000018C4FF6FF7707EA041640F6FF473A405A
:104D10004FF6FF7707EA03373A434FF6FF7707EA84
:104D200005273A438F4FB8420ED08F4FB8420BD071
:104D3000B0F1804F08D08D4FB84205D08C4FB842AB
:104D400002D08C4FB84206D14FF6DF77394046F09B
:104D50001007394305E04FF65F77394044F01007FC
:104D6000394302830184F0BD028B4FF6F3731A407E
:104D70000283028B0A4302837047F0B50C46154646
:104D800000220021068C4FF6FE773E400684028BFF
:104D9000018C4FF60C7632407E1C06EA03162E4339
:104DA0003243704EB0420ED06F4EB0420BD0B0F1D5
:104DB000804F08D06D4EB04205D06D4EB04202D04B
:104DC0006C4EB04206D14FF6FD76314044F00106FC
:104DD000314305E04FF6F576314044F001063143AA
:104DE00002830184F0BD70B505460C465D488542DE
:104DF0000ED05D4885420BD0B5F1804F08D05B489E
:104E0000854205D05A48854202D05A48854200D191
:104E100000E000BF208850B92389A2886188284615
:104E2000FFF7ABFFE1882846FFF79EFF25E02088CB
:104E300004280AD12389A28861882846FFF753FFF6
:104E4000E1882846FFF742FF17E0208808280AD1AA
:104E50002389A28861882846FFF7FBFEE18828465F
:104E6000FFF7EEFE09E02389A28861882846FFF754
:104E7000A6FEE1882846FFF795FE70BD2DE9F041BA
:104E800005460C4600260127608808B9022600E086
:104E90000026A088012801D1022700E001272088F0
:104EA000A0B92389A28861882846FFF766FFE188B8
:104EB0002846FFF759FF23893A4631462846FFF72F
:104EC00012FFE1882846FFF701FF13E02389A2883B
:104ED00061882846FFF707FFE1882846FFF7F6FEBE
:104EE00023893A4631462846FFF747FFE18828469E
:104EF000FFF73AFFBDE8F0810A884B881A438B8898
:104F00001A43CB881A430B891A434B891A438B895E
:104F10001A43A0F8442070474FF6FF7181800021AA
:104F20000180C18041800172704700210180418071
:104F30008180C180018141818181C18170470021CF
:104F400001804180012181800021C1800181704761
:104F50000021018041808180C18001814181818166
:104F600070470000002C0140003401400004004064
:104F700000080040000C004021B1028842F001020C
:104F8000028004E002884FF6FE731A4002807047E8
:104F900031B1B0F8442042F40042A0F8442005E0CA
:104FA000B0F84420C2F30E02A0F8442070471AB1B2
:104FB00083890B43838102E083898B43838170471C
:104FC0008182704741EA0203A0F8483070471AB165
:104FD00083890B43838102E083898B4383817047FC
:104FE00001894FF6F8721140018170470A4600218D
:104FF00001894FF68F73194011430181704730B515
:1050000004460D4629462046FFF7F0FF208940F070
:105010000700208130BD2DE9F04104460D461646BB
:105020001F46602D06D13B46012231462046FFF740
:105030005AFE05E03B46012231462046FFF79DFE21
:1050400029462046FFF7D2FF208940F00700208143
:10505000BDE8F08130B50C4600210189C9B24FF698
:10506000FF7505EA0325154325432943018130BD1A
:105070002DE9F04105460E46174698460024434662
:105080003A4631462846FFF7E5FF2C894FF6F8707F
:10509000044044F007044FF68F70044044F070045D
:1050A0002C81BDE8F081F0B504460D4616461F463A
:1050B0003B46324629462046FFF7CCFF208940F484
:1050C00080402081F0BD0185828270470A46002120
:1050D00001884FF68F731940114301807047F0B576
:1050E0000C4615461E460021002200230189028B32
:1050F000038C4FF6F877394021434FF6FC473A408E
:1051000040F201173A434FF6DD773B404FF6FF7709
:1051100007EA06172F433B43018102830384F0BD56
:105120000A460021018B4FF68F731940114301830A
:1051300070470A460021018B48F6FF7319404FF66D
:10514000FF7303EA02231943018370470A460021D3
:10515000818B4FF68F7319401143818370470A4644
:105160000021818B48F6FF7319404FF6FF7303EA65
:10517000022319438183704721B1028842F08002E3
:10518000028004E002884FF67F731A400280704765
:1051900021B1828842F00402828004E082884FF6C6
:1051A000FB731A408280704721B1828842F0080266
:1051B000828004E082884FF6F7731A40828070473D
:1051C00021B1828842F00102828004E082884FF699
:1051D000FE731A40828070470A460021018B4FF609
:1051E000F77319401143018370470A460021018B70
:1051F0004FF2FF7319404FF6FF7303EA022319437E
:10520000018370470A460021818B4FF6F7731940DE
:105210001143818370470A460021818B4FF2FF734F
:1052200019404FF6FF7303EA022319438183704745
:105230000A460021018B4FF6FB731940114301838D
:1052400070470A460021018B4FF6FF3319404FF695
:10525000FF7303EA02231943018370470A460021C2
:10526000818B4FF6FB7319401143818370470A46C7
:105270000021818B4FF6FF3319404FF6FF7303EA8D
:1052800002231943818370470A460021018B4FF6A0
:105290007F7319401143018370470A460021018B37
:1052A000C1F30E014FF6FF7303EA02231943018392
:1052B00070470A460021818B4FF67F7319401143D6
:1052C000818370470A460021818BC1F30E014FF69E
:1052D000FF7303EA02231943818370470A460021C2
:1052E000018C4FF6FD7319401143018470470A4643
:1052F0000021018C4FF6F773194011430184704768
:105300000A460021018C4FF6DF7319404FF6FF73F8
:1053100003EA02131943018470470A460021018CF5
:105320004FF67F7319404FF6FF7303EA02131943D8
:10533000018470470A460021018C4FF6FF53194043
:105340004FF6FF7303EA02231943018470470A46AC
:105350000021018C4FF2FF7319404FF6FF7303EAEF
:1053600002231943018470470A460021018C4DF63F
:10537000FF7319404FF6FF7303EA023319430184A8
:10538000704730B5002301248C40A3B2048C9C43A9
:105390000484048C02FA01F5ADB22C43048430BDC0
:1053A00030B5002304248C40A3B2048C9C430484B5
:1053B000048C02FA01F5ADB22C43048430BD70B503
:1053C0000346002000241846183001258D40ACB259
:1053D0001D8CA5431D8409B1082909D100EB61008A
:1053E000056825F0700505600568154305600EE049
:1053F0000D1FC5F34E052844056825F4E0450560FA
:1054000005684FF6FF7606EA02263543056070BD53
:1054100021B1028842F00202028004E002884FF6C5
:10542000FD731A400280704721B1028842F00402E5
:10543000028004E002884FF6FB731A400280704736
:1054400021B1828842F08002828004E082884FF697
:105450007F731A408280704702884FF6F7731A40B4
:10546000028002880A430280704782884FF68F7359
:105470001A40828082880A438280704702894FF6F0
:10548000F8731A40028102890A4302817047028937
:105490004FF67F731A40028102890A4302817047E6
:1054A0008184704781857047818670470187704786
:1054B00081877047A0F84010704702884FF6FF437D
:1054C0001A40028002880A43028070470146888E93
:1054D00070470146088F70470146888F7047014624
:1054E000B1F8400070470146888C70470146088D2E
:1054F000704702460020138A0B400BB1012000E0E8
:1055000000207047CA430282704730B5024600202F
:1055100000230024158A05EA0103958905EA0104A0
:1055200013B10CB1012000E0002030BDCA4302825B
:105530007047000010B50446BE48844208D10121DE
:105540008014FFF79FF80021A014FFF79BF816E0E6
:10555000B948844208D101210014FFF7A0F80021C6
:105560002014FFF79CF80AE0B448844207D10121D7
:10557000C013FFF794F80021E013FFF790F810BD77
:1055800010B50022028802F441520B884C88234354
:105590008C882343CC8823430C8923434C892343A1
:1055A0008C892343CC8923431A430280838B4FF297
:1055B000FF74234083830B8A038210BD2DE9F04FD3
:1055C00085B005460C464FF0000902274FF0000851
:1055D0004FF0010B0026B246A88B4FF24001084065
:1055E000A88302202884B5F81C90A068022801D165
:1055F00000BF38E0A08810B94FF0010B01E04FF078
:10560000020B8D48854200D100E000BF6846FEF7DE
:10561000B2FFDDF800A0E088B0F5007F0AD14FEAC4
:105620001A2000EB80004000A168B0FBF1F0401DA3
:1056300086B20BE04FEA4B10BAFBF0F000EB8000B3
:105640004000A168B0FBF1F0401D86B20A20B6FB15
:10565000F0F606F00108A6EB0800C0F34F074FF67E
:10566000FF7000EA0828022F01DBFF2F02DD02276E
:105670004FF00008E08840EA080038432884A088FA
:10568000A1890843618808432188084340F40060E9
:1056900040EA0909A5F81C9005B0BDE8F08F00218B
:1056A000018041808180C180018141818181C181EE
:1056B0000721018270470021018041808180C180E3
:1056C0000221816000218181704721B1028842F06E
:1056D0004002028004E002884FF6BF731A40028045
:1056E000704721B1828B42F48062828304E0828B16
:1056F0004FF6FF331A408283704730B500240023F1
:105700000C110125A540ABB21AB185881D438580D7
:1057100002E085889D43858030BD1AB183880B43A4
:10572000838002E083888B43838070478181704748
:105730000146888970474FF6FF62914204D0028883
:1057400042F48072028004E002884FF6FF631A4040
:105750000280704721B1828842F00402828004E016
:1057600082884FF6FB731A408280704702884FF29E
:10577000FF731A40028002880A4302807047018842
:1057800041F480510180704721B1028842F40052F7
:10579000028004E002884DF6FF731A4002807047D1
:1057A00002460020012901D0108B00E0908A70474A
:1057B0000146088A7047B1F5804F04D1028842F44F
:1057C0008042028004E002884BF6FF731A40028098
:1057D00070470246002013890B400BB1012000E006
:1057E00000207047CA4302817047F0B5024600208E
:1057F00000240023002501F00F070126BE40B4B2AB
:105800000B1101269E40B3B2968806EA030516895D
:10581000264016B10DB1012000E00020F0BD10B50A
:10582000002201F00F040123A3409AB2D343038165
:1058300010BD00000030014000380040003C004036
:10584000002044490860091D0860091D0860091D01
:10585000086041483F4914310860704700213D49C4
:105860008279002A3AD00A46126803689A430B46A6
:105870001A600A1D126803689A430B1D1A600279A8
:1058800011440A6803681A430A60324A08321268EF
:1058900003689A432F4B08331A601A1D1268036875
:1058A0009A432C4B0C331A604279102A0ED11A1FDE
:1058B000126803681A43274B08331A601A1D1268CE
:1058C00003681A43234B0C331A600DE021494279D7
:1058D00011440A6803681A430A6005E0027911441A
:1058E0000A6803689A430A607047002101600171E9
:1058F0000C214171002181717047164910310968EE
:105900000143144A10321160704701460020114AC9
:10591000143212680A400AB1012000E000207047EA
:105920000C49143108607047014600200022094BE1
:105930001B6803EA0102074B14331B680B4013B1C9
:105940000AB1012000E000207047024914310860CC
:105950007047000000040140FFFF0F000FB404492E
:1059600010B503AA029800F02DFA10BC5DF814FBE4
:10597000541C002070B5044685690068C10601D535
:10598000302600E02026C00707D070BDD4E90121F1
:1059900030469047206A401C20626D1EF6D570BDCF
:1059A00070B5044685690078C00707D170BDD4E999
:1059B000012120209047206A401C20626D1EF6D5F0
:1059C00070BD70B50C460546012A05D028788006C2
:1059D00000D5EA69002302E0012305E05B1C934245
:1059E00002D2E05C0028F9D1A869E618C01AA861C3
:1059F000286A184428622846FFF7BCFF04E0D5E96E
:105A0000012114F8010B9047B442F8D32846FFF760
:105A1000C7FF70BD70B504460D4621461068AFF350
:105A200000802188090502D50F4A7A4402E00E4A17
:105A30007A440E32002104F1240305E000F00F0641
:105A40000009965D5E54491C0028F7D12078002398
:105A5000000704D5702D02D009B10223113220466F
:105A6000BDE8704000F03FB9272700002DE9F05F46
:105A7000894604464FF0000ADFF824B1FB44C0F821
:105A800020A02046E168884700287DD0252806D040
:105A9000D4E901219047206A401C2062F1E70025EB
:105AA0005F462046E16888472028064607DB312EFE
:105AB00005D2B81910F8200C08B10543F1E7A80782
:105AC00001D525F00405C4F81CA00027C4F818A0CF
:105AD0002A2E09D0304600F0C9FE38B304EB8708FF
